:100000000C9458340C9489340C9489340C948934AD
:100010000C9489340C948DAB0C9489340D9447382E
:100020000C9418AB0C9489340C9489340C94893456
:100030000C9489340C9489340D94385A0C94708C37
:100040000C9489340D9432050C9489340C948934C1
:100050000C9489340C9489340C9489340D94602A5E
:100060000C9489340C94A1860C9489340C948934B2
:100070000C9489340C9489340C9489340C9489340C
:100080000C9489340C9489340C9489340C948934FC
:100090000C945D860C9489340C9489340C948934C6
:1000A0000C9489340C9489340C94118B0C948934FD
:1000B0000C9489340C94F38A0C9489340C9489340C
:1000C0000C9489340C9489340C9489340C94668A89
:1000D0000C9489340C9489340C9489340C948934AC
:1000E0000C948934168F1F8FC48E938E668E08925F
:1000F000598F77900A915F917B91B2912CCD48CD29
:100100005ACD66CD70CDA0CD16CDB6CDC8CDC4CD5F
:1001100016CDCACDE7CDFBCD0DCE9FE950E99FE9C5
:10012000A2E913EA42EA9FE99FE961EAFD01FD01C4
:100130004D02FD014D029D011F026F0177016F020B
:100140006501F501D10165029701FF016B014302D1
:10015000550215025F025D0207024B01CF01190231
:1001600037023F027B010F027101E7018F01A501F8
:10017000D7017702B10199011D02DB015B028F01FA
:100180007F018701B7015702ED0131026B02E101E6
:10019000D501A101F101B50169018B010902DF015E
:1001A0000D02D501BB01C101570169027502890128
:1001B000A90167025101B9011102CB013902710293
:1001C000E9019F01084AD73B3BCE016E84BCBFFDCD
:1001D000C12F3D6C74319ABD56833DDA3D00C77F17
:1001E00011BED9E4BB4C3E916BAAAABE00000080B0
:1001F0003F05A84CCDB2D44EB93836A9020C50B93F
:10020000918688083CA6AAAA2ABE000000803F0763
:10021000634236B79BD8A71A39685618AEBAAB55A1
:100220008C1D3CB7CC5763BD6DEDFD753EF6177266
:1002300031BF000000803F08000000BE9224491238
:100240003EABAAAA2ABECDCCCC4C3E00000080BE5C
:10025000ABAAAAAA3E00000000BF000000803F0039
:1002600000000000084178D3BB4387D1133D190E2D
:100270003CC3BD4282AD2B3E68EC8276BED98FE195
:10028000A93E4C80EFFFBE01C4FF7F3F000000008D
:1002900000000D940F190D94B72A0D94BE120D9401
:1002A000B9170D9498870D94F5AE0D949E710D9429
:1002B000593C0D94B83A0D94641F0D94361B0D945F
:1002C000A51D0D94781D0D9451210D94B3030D942B
:1002D000F7180D940E3C0D946B030D9445220D946C
:1002E000D2010D94DC390D94AE3A0D94B0740D9496
:1002F000EE030D94C5180D94E9390D94303A0D9420
:10030000133A0D942B3A0D94FD110D941F190D9471
:10031000173A0D9478870D94183C0D94021C0D9497
:10032000203A0D9427190D94273A0D94FB710D94E2
:1003300011040D94FF390D94D7700D9411010D9493
:10034000D6870D94F43B0D94CB170D94ED390D9495
:10035000397F0D947B870D949A1D0D9410720D9426
:10036000EE220D94FB390D94EA140D94043C0D9487
:100370001B3A0D949B870D94453C0D948F710D9401
:10038000C23A0D944F3C0D94851D0D94C73A0D94BF
:10039000EF180D945E010D94AD870D94D03A0D9435
:1003A000BE2A0D949D030D946F1B0D94633C0D9418
:1003B000F1390D94A27D0D94093A0D943F1C0D94D2
:1003C000313C0D94EA3B0D949E1C0D948D1A0D94B6
:1003D000E2390D94CD870D944D1C0D94D13B0D94B5
:1003E00041210D94FC3B0D9417190D94A8030D9415
:1003F000BD3A0D94D7180D94521F0D9402010D941F
:1004000001040D94537F0D9407190D94B07D0D9444
:10041000A52A0D94223C0D94CF180D943B3C0D94CD
:10042000D8390D94A4870D94011D0D947C2A0D9448
:10043000A9720D94E02A0D94257F0D94053A0D9430
:1004400014010D94C2170D94902E0D94A93A0D9499
:1004500064110D9433710D94BC6D0D94E7180D94D7
:100460002E1B0D94D63B0D94CC3A0D94D4170D94BD
:10047000F62A0D94B6870D94213A0D94CA120D9464
:10048000E6390D94081C0D943D030D9413140D943E
:10049000E77E0D94DF180D94FF180D9405010D945F
:1004A000E1110D9449210D9430A00D9421030D9478
:1004B000CC3B0D94F7210D940D3A0D94982A0D9490
:1004C0008A2A0D94321B0D94A3290D9492030D9446
:1004D00095870D9462870D94E03B0D948F1C0D94CD
:1004E000BE030D94CA870D9469150D946B870D9406
:1004F000F7390D947E010D94B33A6E616E00696E0A
:1005000066004E414E494E495459494E46CDCCCCD9
:100510003D0AD7233C17B7D13877CC2B329595E6D7
:10052000241FB14F0A000020410000C84200401CB7
:100530004620BCBE4CCA1B0E5AAEC59D7400407A04
:1005400010F35A00A0724E18090010A5D4E800005C
:10055000E87648170000E40B54020000CA9A3B00FA
:100560000000E1F505000080969800000040420F71
:10057000000000A08601000000102700000000E835
:1005800003000000006400000000000A00000000FA
:10059000000100000000002C76D888DC674F08239B
:1005A000DFC1DFAE59E1B1B796E5E3E453C63AE601
:1005B00051997696E8E6C28426EB898C9B62ED40E1
:1005C0007C6FFCEFBC9C9F40F2BAA56FA5F4900530
:1005D0005A2AF75C936B6CF9676DC11BFCE0E40D64
:1005E00047FEF520E6B500D0ED902E030094357758
:1005F000050080841E080000204E0A000000C80C80
:10060000333333330F986E12831141EF8D211489E8
:100610003BE65516CFFEE6DB18D1844B381BF77C42
:100620001D901DA4BBE424203284725E228100C987
:10063000F124ECA1E53D276364696E6F70737578F2
:10064000585B002564206279746573207772697441
:1006500074656E20746F20454550524F4D20617473
:1006600020616464726573732030782530347800BB
:100670004433202D20526561642F577269746520C0
:10068000454550524F4D0A00442D31202D20456ED6
:10069000646C657373206C6F6F700A005344207034
:1006A00072696E74696E67206279746520004163B7
:1006B000746976652045787472756465723A2000B5
:1006C000496E76616C6964206578747275646572D0
:1006D000005A204F666673657400556E6B6E6F77B7
:1006E0006E20636F6D6D616E643A2022004D323072
:1006F0003020496E76616C69642065787472756427
:10070000657220007A5F6D61783A20007A5F6D69CA
:100710006E3A2000795F6D61783A2000795F6D69EB
:100720006E3A2000785F6D61783A20006F70656ED8
:100730000054524947474552454400785F6D696E01
:100740003A20005265706F7274696E6720656E643E
:1007500073746F70207374617475730053494C45E2
:100760004E54004E4F524D414C002553204D4F44A6
:10077000453A2050657263656E7420646F6E653A09
:1007800020256868643B207072696E742074696DFE
:10079000652072656D61696E696E6720696E206D96
:1007A000696E733A2025643B204368616E6765205B
:1007B000696E206D696E733A2025640A00456E6487
:1007C0002066696C65206C69737400426567696EA8
:1007D0002066696C65206C697374000A50494E4448
:1007E000412074656D70657261747572653A20257B
:1007F0002E3166205A20736869667420286D6D2931
:100800003A20252E3366000A537465703A20256419
:100810002F360A000A537465703A2025642F36205B
:1008200028736B6970706564290A50494E444120F1
:1008300074656D70657261747572653A2025642007
:100840005A20736869667420286D6D293A300A0051
:100850000A5A45524F3A20252E33660A00737461B6
:1008600072742074656D70657261747572653A207A
:10087000252E31660A0025642020252E32660025AB
:100880005320583A20252E356620593A20252E35FA
:1008900066205A3A20252E35660A00536C6565702D
:1008A0002E2E2E0045303A25642052504D0A5052CB
:1008B0004E303A25642052504D0A002564004164B0
:1008C00076616E6365204B3D004B206F7574206F21
:1008D0006620616C6C6F7765642072616E6765215C
:1008E00000200A200A20004D3232302053256900B2
:1008F000255346696C616D656E7420736574746907
:100900006E67733A2044697361626C65640A0025FE
:100910005346696C616D656E742073657474696E9D
:1009200067733A0A25532020204D32303020442569
:100930002E32660A002553526574726163743A2040
:10094000533D4C656E67746820286D6D2920463ACA
:10095000537065656420286D6D2F6D29205A3A20EB
:100960005A4C69667420286D6D290A255320202071
:100970004D3230372053252E32662046252E3266E2
:10098000205A252E32660A25535265636F766572AA
:100990003A20533D4578747261206C656E677468C7
:1009A00020286D6D2920463A537065656420286DB6
:1009B0006D2F6D290A25532020204D3230382053C9
:1009C000252E32662046252E32660A25534175743F
:1009D0006F2D526574726163743A20533D302074F8
:1009E0006F2064697361626C652C203120746F2004
:1009F000696E74657270726574206578747275645E
:100A0000652D6F6E6C79206D6F7665732061732034
:100A10007265747261637473206F72207265636FA4
:100A20007665726965730A25532020204D3230396E
:100A3000205325640A002553504944206865617499
:100A40006265642073657474696E67733A0A25532E
:100A50002020204D3330342050252E326620492569
:100A60002E32662044252E32660A00255350494412
:100A70002073657474696E67733A0A2553202020C9
:100A80004D3330312050252E32662049252E3266D6
:100A90002044252E32660A00255353746570732056
:100AA00070657220756E69743A0A255320204D399D
:100AB000322058252E32662059252E3266205A259E
:100AC0002E32662045252E32660A2553555374650D
:100AD00070207265736F6C7574696F6E3A200A25A9
:100AE00053204D3335302058256420592564205A31
:100AF0002564204525640A25534D6178696D756D1F
:100B000020666565647261746573202D206E6F7256
:100B10006D616C20286D6D2F73293A0A25532020B2
:100B20004D3230332058252E32662059252E32661C
:100B3000205A252E32662045252E32660A25534D31
:100B40006178696D756D2066656564726174657341
:100B5000202D20737465616C746820286D6D2F736F
:100B6000293A0A255320204D3230332058252E3281
:100B7000662059252E3266205A252E3266204525BC
:100B80002E32660A25534D6178696D756D2061635B
:100B900063656C65726174696F6E202D206E6F7273
:100BA0006D616C20286D6D2F7332293A0A25532010
:100BB000204D3230312058256C752059256C752018
:100BC0005A256C752045256C750A25534D61786949
:100BD0006D756D20616363656C65726174696F6EBC
:100BE000202D20737465616C746820286D6D2F73DF
:100BF00032293A0A255320204D3230312058256CB5
:100C0000752059256C75205A256C752045256C7505
:100C10000A2553416363656C65726174696F6E3A4E
:100C200020503D7072696E742C20523D7265747252
:100C30006163742C20543D74726176656C0A25538F
:100C400020204D3230342050252E32662052252E61
:100C500032662054252E32660A2553416476616E31
:100C6000636564207661726961626C65733A2053D2
:100C70003D4D696E20666565647261746520286DFE
:100C80006D2F73292C20543D4D696E20747261764E
:100C9000656C20666565647261746520286D6D2FD2
:100CA00073292C20423D6D696E696D756D207365E9
:100CB000676D656E742074696D6520286D73292CCD
:100CC00020583D6D6178696D756D205859206A65B1
:100CD000726B20286D6D2F73292C20205A3D6D6179
:100CE00078696D756D205A206A65726B20286D6D6C
:100CF0002F73292C2020453D6D6178696D756D201D
:100D000045206A65726B20286D6D2F73290A255363
:100D100020204D3230352053252E32662054252E8A
:100D200032662042252E32662058252E3266205902
:100D3000252E3266205A252E32662045252E326613
:100D40000A2553486F6D65206F66667365742028A9
:100D50006D6D293A0A255320204D32303620582512
:100D60002E32662059252E3266205A252E32660AEA
:100D7000004625642025640A004D4D55203C3D2049
:100D800027462564202564270A00504944204175E0
:100D9000746F74756E652066696E69736865642129
:100DA0002050757420746865206C617374204B70DA
:100DB0002C204B6920616E64204B6420636F6E733E
:100DC00074616E74732066726F6D2061626F7665F8
:100DD00020696E746F20436F6E6669677572617407
:100DE000696F6E2E6800504944204175746F7475A8
:100DF0006E65206661696C6564212074696D656F3C
:100E000075740020403A00543A00423A0050494478
:100E1000204175746F74756E65206661696C6564D8
:100E2000212054656D706572617475726520746FF0
:100E30006F206869676800204B643A2000204B6986
:100E40003A2000204B703A200020436C6173736994
:100E5000632050494420002054753A2000204B75EF
:100E60003A2000206D61783A2000206D696E3A20AA
:100E70000020643A200020626961733A20004361D7
:100E8000703A25533A25630A00455854454E444567
:100E9000445F4D3230004155544F5245504F5254EB
:100EA0005F504F534954494F4E004155544F52459E
:100EB000504F52545F46414E53004155544F524596
:100EC000504F52545F54454D5000005A30005A3133
:100ED00000593000593100583000583100456E64D7
:100EE0002073746F707320646961670044656C657A
:100EF00074696F6E206661696C65642C2046696C4C
:100F0000653A200046696C652064656C65746564AB
:100F10003A004E6F74205344207072696E74696E8B
:100F200067005072696E7420736176656400534483
:100F3000207072696E7420706175736564004F4B28
:100F4000004241440052414D426F2046414E200034
:100F500043524153485F43414E43454C0043524145
:100F600053485F5245434F56455200435241534800
:100F70005F5245434F56455200222832290044759E
:100F8000706C696361746520542D636F64652069BA
:100F9000676E6F7265642E00496E76616C696420BD
:100FA0005420636F64652E00556E6B6E6F776E20F4
:100FB0004D20636F64653A202573200A002C204D74
:100FC00039303720452069676E6F726564006E6F37
:100FD0002076616C696420636F6D6D616E64002CB6
:100FE00020002C20002C20006E2F61002C20002CD3
:100FF00020002C20006E2F6100503A005761697468
:1010000020666F722050494E4441207461726765BA
:10101000742074656D70657261747572653A004113
:1010200055544F004C414E472053454C20464F529B
:1010300043454400256925250A00256925250A0020
:10104000222831290030303030303030302D3030EF
:1010500030302D303030302D303030302D30303099
:101060003030303030303030300020555549443A3F
:101070000031002045585452554445525F434F5566
:101080004E543A005072757361206933204D4B33D2
:101090005300204D414348494E455F545950453A0D
:1010A00000312E3000206261736564206F6E204D28
:1010B00061726C696E204649524D574152455F55E9
:1010C000524C3A68747470733A2F2F67697468755C
:1010D000622E636F6D2F707275736133642F50725F
:1010E0007573612D4669726D776172652050524F3C
:1010F000544F434F4C5F56455253494F4E3A00466A
:1011000049524D574152455F4E414D453A507275D7
:1011100073612D4669726D7761726520004D3131C2
:101120003320530020423A0020453A00543A006FE1
:101130006B20006E2F61003F546F736869626120FD
:10114000466C617368416972204765744950206636
:1011500061696C65640A002569206D696E2C202523
:10116000692073656300496E76616C6964204D2067
:10117000636F64653A202573200A00556E6B6E6FAD
:10118000776E204720636F64653A202573200A003C
:101190004D65736820626564206C6576656C696E68
:1011A00067206E6F74206163746976652E0020205D
:1011B000000A4D6561737572656420706F696E74A5
:1011C000733A000A5A207365617263682068656922
:1011D0006768743A20004E756D20582C593A2000EB
:1011E00050494E44412070726F62652063616C69A2
:1011F00062726174696F6E20737461727400473239
:1012000038205730004E6F2050494E4441207468BA
:1012100065726D6973746F7200736574006E6F7AB6
:101220007A6C65004D424C00465200426561740084
:101230004C7A004C616E6700526576004669720018
:10124000534E20696E76616C696400534E004D32D6
:1012500038005245534554004D4D55524553004DAD
:1012600032340075766C6F007468780046414E0029
:1012700046414E50494E5453540050524E0050690E
:101280006E67005052555341005345545F43484FD9
:10129000505F005345545F535445505F00534554CD
:1012A0005F574156455F00544D435F0043524153E1
:1012B000485F43414E43454C0043524153485F52BF
:1012C00045434F5645520043524153485F444554AD
:1012D00045435445440043524153485F004D31203B
:1012E000004D30004D31313700472D636F6465206C
:1012F000736C6963656420666F722061206469663F
:10130000666572656E74206C6576656C2E20436F21
:101310006E74696E75653F00472D636F6465207359
:101320006C6963656420666F72206120646966661B
:101330006572656E74206C6576656C2E20506C65E8
:101340006173652072652D736C69636520746865CF
:10135000206D6F64656C20616761696E2E2050722C
:10136000696E742063616E63656C6C65642E004702
:101370002D636F646520736C6963656420666F72AA
:101380002061206E65776572206669726D77617283
:10139000652E20506C65617365207570646174659D
:1013A00020746865206669726D776172652E2050C1
:1013B00072696E742063616E63656C6C65642E0087
:1013C000472D636F646520736C6963656420666F85
:1013D000722061206E65776572206669726D776133
:1013E00072652E20436F6E74696E75653F00472DE0
:1013F000636F646520736C6963656420666F722037
:101400006120646966666572656E74207072696ECB
:1014100074657220747970652E20436F6E74696EE6
:1014200075653F00472D636F646520736C69636564
:101430006420666F72206120646966666572656EFD
:1014400074207072696E74657220747970652E20D4
:10145000506C656173652072652D736C69636520DE
:10146000746865206D6F64656C20616761696E2EBC
:10147000205072696E742063616E63656C6C656484
:101480002E00507265737320746865206B6E6F62F6
:1014900020746F2070726568656174206E6F7A7A4F
:1014A0006C6520616E6420636F6E74696E75652E65
:1014B00000506C6561736520707265737320746889
:1014C00065206B6E6F6220746F20756E6C6F616447
:1014D0002066696C616D656E740052656D6F76652E
:1014E000206F6C642066696C616D656E7420616E3E
:1014F0006420707265737320746865206B6E6F6210
:1015000020746F207374617274206C6F6164696EF3
:1015100067206E65772066696C616D656E742E005C
:10152000616E6420707265737320746865206B6EE1
:101530006F6200496E736572742066696C616D65D7
:101540006E7400436F6C6F72206E6F7420636F72E5
:10155000726563740046696C616D656E74206E6FB0
:1015600074206C6F61646564004368616E676564D4
:1015700020636F72726563746C793F004C6F6164B5
:10158000696E6720636F6C6F72004368616E676598
:1015900020737563636573732100506C65617365B7
:1015A000206F70656E2069646C657220616E6420C6
:1015B00072656D6F76652066696C616D656E74200D
:1015C0006D616E75616C6C792E0057617320666970
:1015D0006C616D656E7420756E6C6F6164207375DF
:1015E000636365737366756C3F00506C656173650A
:1015F00020757067726164652E004E65772066699C
:10160000726D776172652076657273696F6E2061A5
:101610007661696C61626C653A0057616974696EE4
:101620006720666F722050494E44412070726F628D
:101630006520636F6F6C696E670043726173682029
:1016400064657465637465642E20526573756D6599
:10165000207072696E743F00437261736820646524
:101660007465637465642E0043686F6F73652065ED
:10167000787472756465723A0043686F6F736520A1
:1016800066696C616D656E743A004E6F206D6F76A1
:10169000652E00537461626C6520616D6269656ED0
:1016A000742074656D706572617475726520323175
:1016B0002D323643206973206E6565646564206150
:1016C000207269676964207374616E642069732095
:1016D00072657175697265642E00506C6561736521
:1016E0002072756E2058595A2063616C696272616C
:1016F00074696F6E2066697273742E005761697425
:1017000020666F7220757365722E2E2E003B53007B
:101710006164635F696E6974000A204F726967696A
:101720006E616C2050727573612069330A2020202D
:101730005072757361205265736561726368002031
:101740000A200A200A2000416C6C20446174610068
:1017500053657276696365207072657000536869BD
:101760007070696E6720707265700053746174697F
:101770007374696373004C616E67756167650045DA
:10178000524153494E4720616C6C20646174610082
:10179000466163746F727920524553455400444941
:1017A0005341424C454400454E41424C4544002083
:1017B0002873656E736F7220626F61726420726548
:1017C000766973696F6E3A2553290A004653656E30
:1017D000736F7220255300494E5434004D4B3353E0
:1017E0004D4D553253004E4F4D4B3353002E014E4D
:1017F0004F4354554100414C5446414E004D617990
:10180000203138203230323100436F6D70696C65A1
:10181000643A2000286E6F6E652C206465666175E1
:101820006C7420636F6E66696729004D61792031A1
:101830003820323032312031363A35323A353500BF
:1018400020332E31302E302D343438310073746112
:10185000727400534E20757064617465206661690E
:101860006C656400534E207570646174656400415A
:101870006E206572726F72207768696C652077726E
:101880006974696E6720746F207468652053442002
:10189000436172642E002055706C6F616420696E24
:1018A0002070726F677265737300205A3A00205976
:1018B0003A0020583A0043524153485F444554454A
:1018C0004354454458590043524153485F4445549A
:1018D0004543544544590043524153485F4445549D
:1018E000454354454458004D32390045787465727B
:1018F0006E616C2053504920666C6173680A5846CB
:101900004C415348206973206E6F74207265732DAB
:101910000A706F6E64696E672E204C616E67756128
:1019200067650A73776974636820756E61766169AB
:101930006C61626C652E0050727573612069332092
:101940004D4B3353204F4B2E0043726173684465F7
:10195000746563742044495341424C4544004372CA
:1019600061736844657465637420454E41424C451B
:1019700044210045787472756465722066616E203A
:10198000747970653A200058464C415348206E6F78
:101990007420726573706F6E64696E672E0020200C
:1019A000506C616E6E6572427566666572427974DE
:1019B00065733A20002046726565204D656D6F7233
:1019C000793A2000207C20417574686F723A2000BB
:1019D000204C61737420557064617465643A200012
:1019E00020536F6674776172652052657365740069
:1019F000205761746368646F672052657365740073
:101A00002042726F776E206F757420526573657413
:101A1000002045787465726E616C20526573657440
:101A200000506F7765725570006572726F72207723
:101A3000726974696E6720746F2066696C650065F1
:101A40006E6473746F7073206869743A2000446F19
:101A50006E6520736176696E672066696C652E001D
:101A60006F6B004D4B3353206669726D7761726501
:101A7000206465746563746564206F6E204D4B331C
:101A8000207072696E74657200426C61636B6F7571
:101A900074206F636375727265642E205265636F84
:101AA000766572207072696E743F0053656C66745F
:101AB0006573742077696C6C2062652072756E2086
:101AC000746F2063616C6962726174652061636325
:101AD00075726174652073656E736F726C65737374
:101AE000207265686F6D696E672E00546865726557
:101AF000206973207374696C6C2061206E65656465
:101B000020746F206D616B65205A2063616C69627F
:101B1000726174696F6E2E20506C6561736520660A
:101B20006F6C6C6F7720746865206D616E75616C89
:101B30002C2063686170746572204669727374202A
:101B400073746570732C2073656374696F6E2043C2
:101B5000616C6962726174696F6E20666C6F772E5A
:101B6000005072696E74657220686173206E6F74C4
:101B7000206265656E2063616C6962726174656480
:101B8000207965742E20506C6561736520666F6CDA
:101B90006C6F7720746865206D616E75616C2C20A8
:101BA000636861707465722046697273742073741F
:101BB0006570732C2073656374696F6E2043616C6C
:101BC0006962726174696F6E20666C6F772E004F68
:101BD0006C642073657474696E677320666F756ECC
:101BE000642E2044656661756C74205049442C2035
:101BF000457374657073206574632E2077696C6C0F
:101C0000206265207365742E005761726E696E677D
:101C10003A20626F7468207072696E746572207405
:101C200079706520616E64206D6F74686572626F93
:101C30006172642074797065206368616E676564A1
:101C40002E005761726E696E673A207072696E7409
:101C500065722074797065206368616E6765642EB3
:101C6000005761726E696E673A206D6F74686572B5
:101C7000626F6172642074797065206368616E6759
:101C800065642E0058595A2063616C6962726174F0
:101C9000696F6E20616C6C2072696768742E2053C6
:101CA0006B65772077696C6C20626520636F727258
:101CB0006563746564206175746F6D6174696361D7
:101CC0006C6C792E0058595A2063616C696272619C
:101CD00074696F6E20616C6C2072696768742E2065
:101CE000582F5920617865732061726520736C6983
:101CF0006768746C7920736B657765642E20476F15
:101D00006F64206A6F62210058595A2063616C69C0
:101D100062726174696F6E206F6B2E20582F59208C
:101D200061786573206172652070657270656E649C
:101D30006963756C61722E20436F6E677261747592
:101D40006C6174696F6E73210058595A2063616C1D
:101D50006962726174696F6E206661696C65642E78
:101D60002052696768742066726F6E742063616CBC
:101D70006962726174696F6E20706F696E74206E33
:101D80006F7420726561636861626C652E005859DA
:101D90005A2063616C6962726174696F6E2066615A
:101DA000696C65642E2046726F6E742063616C6985
:101DB00062726174696F6E20706F696E7473206EE9
:101DC0006F7420726561636861626C652E0058599A
:101DD0005A2063616C6962726174696F6E2066611A
:101DE000696C65642E20506C6561736520636F6E4D
:101DF00073756C7420746865206D616E75616C2EEE
:101E00000058595A2063616C6962726174696F6E1F
:101E100020636F6D70726F6D697365642E205269F7
:101E20006768742066726F6E742063616C69627299
:101E30006174696F6E20706F696E74206E6F7420AC
:101E4000726561636861626C652E0058595A20633F
:101E5000616C6962726174696F6E20636F6D70721C
:101E60006F6D697365642E2046726F6E74206361B6
:101E70006C6962726174696F6E20706F696E7473E1
:101E8000206E6F7420726561636861626C652E00FC
:101E900058595A2063616C6962726174696F6E206F
:101EA0006661696C65642E204265642063616C69BB
:101EB00062726174696F6E20706F696E74207761F1
:101EC00073206E6F7420666F756E642E00506C65A3
:101ED00061736520706C61636520737465656C2047
:101EE0007368656574206F6E2068656174626564EF
:101EF0002E0044697374616E636520626574776552
:101F0000656E20746970206F6620746865206E6F3E
:101F10007A7A6C6520616E642074686520626564FD
:101F2000207375726661636520686173206E6F74DB
:101F3000206265656E20736574207965742E20506B
:101F40006C6561736520666F6C6C6F772074686573
:101F5000206D616E75616C2C2063686170746572B0
:101F60002046697273742073746570732C207365D6
:101F70006374696F6E204669727374206C61796551
:101F8000722063616C6962726174696F6E2E0050B9
:101F90006C6163652061207368656574206F6620DD
:101FA000706170657220756E64657220746865205A
:101FB0006E6F7A7A6C6520647572696E67207468DA
:101FC000652063616C6962726174696F6E206F660F
:101FD000206669727374203420706F696E74732E7A
:101FE00020496620746865206E6F7A7A6C6520637C
:101FF00061746368657320746865207061706572D0
:102000002C20706F776572206F666620746865207B
:102010007072696E74657220696D6D656469617452
:10202000656C792E00506C656173652072656D6F0B
:10203000766520737465656C2073686565742066C9
:10204000726F6D20686561746265642E004973204B
:10205000737465656C207368656574206F6E2068A5
:102060006561746265643F00536561726368696E9F
:1020700067206265642063616C6962726174696F74
:102080006E20706F696E74004D6561737572696E54
:1020900067207265666572656E636520686569674D
:1020A0006874206F662063616C6962726174696F25
:1020B0006E20706F696E7400506C6561736520638B
:1020C0006C65616E20746865206E6F7A7A6C65202D
:1020D000666F722063616C6962726174696F6E2EE3
:1020E00020436C69636B207768656E20646F6E6552
:1020F0002E004175746F20686F6D65004D656173CA
:102100007572656420736B6577733A2025662025A8
:10211000660A0046697474696E67206661696C6559
:1021200064203D3E2063616C6962726174696F6E08
:10213000206661696C65642E0A0043616C69627295
:102140006174696F6E20737563636573732E0A0023
:10215000416C6C20342063616C6962726174696FD8
:102160006E20706F696E747320666F756E642E0AD0
:1021700000312F3400312F3400312F390078797A33
:1021800063616C5F6D656173737572655F656E74B5
:1021900065720A0078797A63616C5F737069726145
:1021A0006C382063783D25642063793D2564207A6E
:1021B000303D256420647A3D256420726164697530
:1021C000733D25642061643D25640A0078797A6353
:1021D000616C5F7365617263685A206E6F2073690A
:1021E000676E616C0A20783D256C6420793D256C12
:1021F00064207A3D256C640A00204F4E2D534947D8
:102200004E414C20617420783D256420793D256441
:10221000207A3D25642061643D25640A0078797A3E
:1022200063616C5F7365617263685A20783D256CE9
:102230006420793D256C64207A3D256C640A002574
:10224000640A005363616E20636F756E74646F7708
:102250006E3A20000A002530327800205B25662087
:1022600025665D206D6D207061747465726E2063EB
:10227000656E7465720A00205B25662025665D5BCD
:1022800025665D206D6D20646976657267656E6395
:10229000650A000000F000F801FC03FE07FE07FEDF
:1022A00007FE07FC03F801F000000000000000F04A
:1022B00000F801FC03FC03FC03FC03F801F0000040
:1022C00000000078797A63616C5F6D656173737586
:1022D00072655F6C656176650A00203C200057419D
:1022E000524E494E473A2046726F6E7420706F69A5
:1022F0006E74206E6F7420726561636861626C65D4
:102300002E205920636F6F7264696E6174653A00A4
:1023100000000040410000C04000005C430000C0DD
:102320004000005C4300004643000040410000467E
:102330004325642F3400497465726174696F6E3A85
:10234000200043616C6962726174696F6E2066611E
:10235000696C65642120436865636B20746865203F
:102360006178657320616E642072756E20616761AB
:10237000696E2E00555341525432207278204675B2
:102380006C6C2121210053657474696E677320534E
:10239000746F7265640053746F7265642073657442
:1023A00074696E677320726574726965766564001E
:1023B00048617264636F6465642044656661756C2E
:1023C000742053657474696E6773204C6F61646523
:1023D0006400563200000000C8420000C8420000FD
:1023E000C84300008C4300004843000048430000FD
:1023F00040410000F042E8030000E8030000C8008C
:1024000000008813000000409C4400409C440000F1
:10241000000000000000204E0000000020410000ED
:102420002041CDCCCC3E00009040000000000000D8
:10243000000000000000CDCCCC3E3D0A8141FF08E9
:10244000433EB099AB438F42FC42E65A343F4C6264
:10245000B045000000000040400000344200000091
:10246000000000000000000041000000E03F00000C
:10247000C8420000C842000040410000F042C003D2
:102480000000C0030000C800000088130000101006
:10249000102000409C44627573793A207061757316
:1024A000656420666F7220696E7075740062757362
:1024B000793A2070617573656420666F7220757358
:1024C000657200627573793A2070726F6365737319
:1024D000696E670000007F43008054430000524350
:1024E00000000000000080C09A99193E0000000022
:1024F000000080C09A99193E0000A0400000A04052
:102500000000004025336420737465703D253264FB
:10251000206D73636E743D2534640A0000007F43B0
:10252000008058439AD95143FFFFFF252E31305385
:1025300020002563252D31382E3138732563002581
:1025400063252D2E31365320002563252E3135533A
:102550003A257325336400252D32302E3230530A4C
:1025600000457872656D65207370616E206F66201E
:10257000746865205A2076616C7565732100256446
:102580002F39006F6B0A0073746172740A004D4D2D
:102590005532206669726D77617265207665727357
:1025A000696F6E20696E76616C69642E2052657168
:1025B00075697265642076657273696F6E3A206220
:1025C00075696C64206E756D626572202564206F7C
:1025D00072206869676865722E004D4D55203D3E3A
:1025E00020276F6B270A004D4D55203D3E20276F59
:1025F0006B270A002564004D4D55203D3E20276F76
:102600006B272C20726573756D65207072696E740E
:102610000A004D4D5520726574727920617474659D
:102620006D7074206E722E2025640A004D4D552069
:102630003D3E20276F6B270A00410A004D4D552073
:102640003C3D202741270A004D363030004D3630C2
:1026500030204155544F002568687500410A004DEF
:102660004D55203C3D202741270A0050300A004D9F
:1026700025640A004D4D55203C3D20274D256427FB
:102680000A0057300A004D4D55203C3D2027573059
:10269000270A0053330A004D4D55203C3D20275357
:1026A00033270A0052300A004D4D55203C3D20276B
:1026B0005230270A004B25640A004D4D55203C3D01
:1026C00020274B2564270A004525640A004D4D55F7
:1026D000203C3D2027452564270A0055300A004D3F
:1026E0004D55203C3D20275530270A0043300A0035
:1026F0004D4D55203C3D20274330270A004C256492
:102700000A004D4D55203C3D20274C2564270A00EA
:102710005425640A004D4D55203C3D202754256426
:10272000270A004D4D55202D20454E41424C454431
:1027300000256868750050300A004D310A004D4D83
:1027400055203C3D20274D31270050300A004D4D8B
:10275000552076657273696F6E2076616C696400CE
:102760004D4D55203D3E202725646F6B270A0025DF
:10277000750053320A004D4D55203C3D2027533201
:1027800027004D4D55203D3E202725646F6B270ABD
:10279000002575004D4D55206E6F74207265737065
:1027A0006F6E64696E67202D2044495341424C4549
:1027B000440053310A004D4D55203C3D20275331F4
:1027C00027004D4D55203D3E2027737461727427BC
:1027D00000426564206C6576656C696E6720666191
:1027E000696C65642E2053656E736F722064696432
:1027F0006E277420747269676765722E2044656263
:10280000726973206F6E206E6F7A7A6C653F205705
:10281000616974696E6720666F7220726573657492
:102820002E00506C6561736520757064617465205D
:102830006669726D7761726520696E20796F757255
:10284000204D4D55322E2057616974696E672066A0
:102850006F722072657365742E00312F3900776FA7
:10286000726C6420636F6F7264696E617465733A31
:102870002028252E33662C20252E33662C20252E4D
:102880003366290A0043757272656E7420706F7327
:10289000205A5F415849533A252E33660A437572D0
:1028A00072656E7420706F7320455F415849533ACA
:1028B000252E33660A00416674657220776169745B
:1028C000696E6720666F722074656D703A0A437591
:1028D0007272656E7420706F7320585F415849534F
:1028E0003A252E33660A43757272656E7420706FD6
:1028F0007320595F415849533A252E33660A0072B6
:1029000065636F7665725F6D616368696E655F733D
:10291000746174655F61667465725F706F7765720C
:102920005F70616E69632C20696E697469616C20E7
:102930000050525553412075766C6F004734205338
:1029400030004D32362053256C75004D3130362025
:1029500053004D3232302053256400473120462544
:1029600064004D3832004739322045004731204558
:1029700025302E3366204632373030004D32303429
:1029800020502566205225662054256600473120B8
:102990005A2566005052555341204D424C20563125
:1029A00000473120582566205925662046333030AF
:1029B0003000506F736974696F6E207265616420B6
:1029C00066726F6D20656570726F6D3A004D3233BF
:1029D000202573002E67636F002C20666565646D8B
:1029E000756C7469706C793A0046656564726174DF
:1029F000653A0047312045252D302E33662046327A
:102A00003730300047312045352046313230004DD7
:102A10003833004D31303920532564004D31393081
:102A200020532564004D3130342053256400473253
:102A30003820582059004731205A252E3366204629
:102A4000383030004731205A252D302E336620464D
:102A5000252D302E33660047312045252D302E336D
:102A600066204632373030004D38330000002110E8
:102A7000422063308440A550C660E77008812991E8
:102A80004AA16BB18CC1ADD1CEE1EFF13112100290
:102A900073325222B5529442F772D6623993188338
:102AA0007BB35AA3BDD39CC3FFF3DEE3622443345C
:102AB00020040114E664C774A44485546AA54BB588
:102AC00028850995EEE5CFF5ACC58DD55336722630
:102AD00011163006D776F6669556B4465BB77AA7D8
:102AE00019973887DFF7FEE79DD7BCC7C448E5587C
:102AF0008668A7784008611802282338CCC9EDD928
:102B00008EE9AFF9488969990AA92BB9F55AD44ACF
:102B1000B77A966A711A500A333A122AFDDBDCCB77
:102B2000BFFB9EEB799B588B3BBB1AABA66C877C9B
:102B3000E44CC55C222C033C600C411CAEED8FFDC7
:102B4000ECCDCDDD2AAD0BBD688D499D977EB66E6F
:102B5000D55EF44E133E322E511E700E9FFFBEEF17
:102B6000DDDFFCCF1BBF3AAF599F788F8891A981D9
:102B7000CAB1EBA10CD12DC14EF16FE18010A100C3
:102B8000C230E3200450254046706760B9839893B3
:102B9000FBA3DAB33DC31CD37FE35EF3B102901213
:102BA000F322D2323542145277625672EAB5CBA57F
:102BB000A89589856EF54FE52CD50DC5E234C32463
:102BC000A01481046674476424540544DBA7FAB753
:102BD0009987B8975FE77EF71DC73CD7D326F236B3
:102BE0009106B01657667676154634564CD96DC99F
:102BF0000EF92FE9C899E9898AB9ABA94458654803
:102C000006782768C018E1088238A3287DCB5CDBF2
:102C10003FEB1EFBF98BD89BBBAB9ABB754A545A52
:102C2000376A167AF10AD01AB32A923A2EFD0FEDBE
:102C30006CDD4DCDAABD8BADE89DC98D267C076CA2
:102C4000645C454CA23C832CE01CC10C1FEF3EFF92
:102C50005DCF7CDF9BAFBABFD98FF89F176E367EF2
:102C6000554E745E932EB23ED10EF01E7C3C3E3F1C
:102C70002F2A225C005265636F766572696E672049
:102C80007072696E7400506C65617365207761695C
:102C900074004D363030006673656E736F725F7509
:102CA0007064617465202D204D363030004952200B
:102CB00073656E736F72206E6F7420726573706FC0
:102CC0006E64696E672028256429210A0020573A1E
:102CD0000020453A00543A005A206C69766520611C
:102CE000646A757374206F7574206F662072616EEC
:102CF00067652E2053657474696E6720746F203089
:102D00002E20436C69636B20746F20636F6E74694F
:102D10006E75652E005A206C6976652061646A754F
:102D20007374206F7574206F662072616E67652EF4
:102D30002053657474696E6720746F2030002042E0
:102D40003A0020453A00543A00494E543400486550
:102D50006174696E672064697361626C6564206286
:102D600079207361666574792074696D65722E00CF
:102D700046532076302E33206F72206F6C6465725C
:102D80000046532076302E34206F72206E657765B2
:102D90007200496E6163746976697479205368754D
:102DA00074646F776E004B494C4C45442E200050A4
:102DB00072696E7465722068616C7465642E206B34
:102DC000696C6C28292063616C6C656421004B4937
:102DD0004C4C3A2025640A004D32323120496E763F
:102DE000616C696420657874727564657220004D49
:102DF00032313820496E76616C696420657874726E
:102E00007564657220004D31303920496E76616CF1
:102E1000696420657874727564657220004D313084
:102E20003520496E76616C696420657874727564CA
:102E3000657220004D31303420496E76616C6964D2
:102E40002065787472756465722000504F57455242
:102E50002050414E49432044455445435445440085
:102E600055564C4F202D20656E642025640A005570
:102E7000564C4F5F54494E59202D20656E642025D5
:102E8000640A006572726F723A20756E6B6E6F77AE
:102E90006E206D6F7665006E6F206D6F76650054E5
:102EA0002D636F646500756E6C6F6164006C6F619B
:102EB00064006D6D755F6765745F726573706F6ECA
:102EC0007365202D20626567696E206D6F76653AA7
:102ED00020006D6D755F6765745F726573706F6EEE
:102EE000736528292072657475726E696E673A2061
:102EF00025640A00556E6C6F6164696E67206669AF
:102F00006E6973686564203200556E6C6F61642071
:102F10003200556E6C6F6164696E672066696E6918
:102F200073686564203100556E6C6F6164203100F8
:102F30004D4D552073746172747320726573706F98
:102F40006E64696E67004D4D55206E6F742072651A
:102F500073706F6E64696E670046696C616D656E53
:102F600074206F7574206F662072616E676520250E
:102F700064200A000000803F555585410000803FD5
:102F80000000C84100000040555505420000C03F08
:102F9000000048420000204055558542000070C1A5
:102FA000ABAAA642000060C10000A0410000C0C062
:102FB0000000204100002041ABAA3A41000020C19E
:102FC0005555D540000048C2555505424D37303162
:102FD000204534004D373031204533004D373031F6
:102FE000204532004D373031204531004D373031EA
:102FF0002045300046696C616D656E74206E7220EC
:103000006F7574206F662072616E6765210020669F
:1030100061696C65642E0020737563636565646522
:10302000642E004D4D552063616E5F6C6F61643A94
:10303000004164646974696F6E616C206C6F6164D7
:1030400020617474656D7074206E722E2025640A80
:1030500000773235783230636C5F63666D0A0077D3
:103060003235783230636C5F656E7465720A007356
:10307000746172740A004D4D55204F4B2E205265DD
:1030800073756D696E672E2E2E004D4D55204F4B7A
:103090002E20526573756D696E6720706F73697449
:1030A000696F6E2E2E2E004D4D55204F4B2E205207
:1030B0006573756D696E672074656D706572617496
:1030C0007572652E2E2E0046697820746865206919
:1030D0007373756520616E64207468656E2070720C
:1030E00065737320627574746F6E206F6E204D4D22
:1030F0005520756E69742E00507265737320746864
:1031000065206B6E6F6220746F20726573756D65DC
:10311000206E6F7A7A6C652074656D70657261746B
:103120007572652E004D4D55206E65656473207572
:1031300073657220617474656E74696F6E2E0043DE
:10314000757474696E672066696C616D656E740074
:10315000506C656173652072656D6F766520666978
:103160006C616D656E7420616E64207468656E209C
:10317000707265737320746865206B6E6F622E00C9
:10318000456A656374696E672066696C616D656E1A
:1031900074004D4D55206C6F6164206661696C65EB
:1031A000640025632533642F25642563005B50523A
:1031B0004E3A005B50464E3A305D005B4449413A1E
:1031C000005D5B4154423A005D5B4154303A005D22
:1031D0005B5354423A005B5354303A004738300056
:1031E0004D3435004D3435205A0047373600576985
:1031F0007A6172642073746174653A2025640A00F0
:103200004578747275646572004D6F7665205A005A
:103210004D6F76652059004D6F76652058004372DA
:1032200061736820646574656374696F6E2063619F
:103230006E0A6265207475726E6564206F6E206F11
:103240006E6C7920696E0A4E6F726D616C206D6FC5
:103250006465005741524E494E473A0A43726173C2
:103260006820646574656374696F6E0A646973616C
:10327000626C656420696E0A537465616C746820C1
:103280006D6F6465004175746F6C6F6164696E6722
:103290002066696C616D656E7420617661696C6130
:1032A000626C65206F6E6C79207768656E20666948
:1032B0006C616D656E742073656E736F72206973D7
:1032C000207475726E6564206F6E2E2E2E0045522E
:1032D000524F523A2046696C616D656E7420736579
:1032E0006E736F72206973206E6F742072657370D5
:1032F0006F6E64696E672C20706C65617365206306
:103300006865636B20636F6E6E656374696F6E2EA4
:10331000004D6F6465206368616E676520696E208B
:1033200070726F67726573732E2E2E0043616C6925
:10333000627261746500536865657420252E377369
:103340000A5A206F66667365743A20252B312E3336
:1033500066206D6D0A2563436F6E74696E75650A2C
:10336000256353746172742066726F6D207A657282
:103370006F00506C65617365206C6F6164206669D5
:103380006C616D656E742066697273742E003E43C5
:10339000616E63656C0046696C616D656E740053A7
:1033A000656C6563742066696C616D656E743A0066
:1033B00052756E6E696E672057697A617264207704
:1033C000696C6C2064656C657465206375727265E8
:1033D0006E742063616C6962726174696F6E2072D1
:1033E0006573756C747320616E642073746172749C
:1033F0002066726F6D2074686520626567696E6E05
:10340000696E672E20436F6E74696E75653F00505C
:10341000726568656174696E67206E6F7A7A6C6533
:103420002E20506C6561736520776169742E004CA5
:103430006F6164696E672066696C616D656E7400AA
:10344000506C6561736520696E736572742066697E
:103450006C616D656E7420696E746F207468652090
:1034600065787472756465722C207468656E20705E
:103470007265737320746865206B6E6F6220746F61
:10348000206C6F61642069742E00506C65617365F7
:1034900020696E736572742066696C616D656E7407
:1034A00020696E746F207468652066697273742079
:1034B00074756265206F6620746865204D4D552CCB
:1034C000207468656E20707265737320746865205F
:1034D0006B6E6F6220746F206C6F61642069742E54
:1034E00000546865207072696E7465722077696C2B
:1034F0006C207374617274207072696E74696E6787
:103500002061207A69672D7A6167206C696E652E6B
:1035100020526F7461746520746865206B6E6F62F1
:1035200020756E74696C20796F75207265616368AF
:1035300020746865206F7074696D616C20686569BE
:103540006768742E20436865636B2074686520701B
:103550006963747572657320696E2074686520688C
:10356000616E64626F6F6B202843616C6962726187
:1035700074696F6E2063686170746572292E0053E0
:10358000656C6563742074656D70657261747572C5
:1035900065207768696368206D617463686573206E
:1035A000796F7572206D6174657269616C2E00436C
:1035B000686F6F736520612066696C616D656E74FC
:1035C00020666F7220746865204669727374204C9F
:1035D000617965722043616C6962726174696F6EB2
:1035E00020616E642073656C656374206974206962
:1035F0006E20746865206F6E2D73637265656E2032
:103600006D656E752E004E6F7720492077696C6C62
:103610002063616C696272617465206469737461AE
:103620006E6365206265747765656E2074697020CD
:103630006F6620746865206E6F7A7A6C6520616EA3
:103640006420686561746265642073757266616385
:10365000652E00596F752063616E20616C7761790A
:103660007320726573756D65207468652057697A7B
:103670006172642066726F6D2043616C6962726171
:1036800074696F6E202D3E2057697A6172642E0036
:10369000506C6561736520636865636B206F75723C
:1036A0002068616E64626F6F6B20616E6420666972
:1036B00078207468652070726F626C656D2E20547E
:1036C00068656E20726573756D6520746865205736
:1036D000697A617264206279207265626F6F7469C1
:1036E0006E6720746865207072696E7465722E0052
:1036F000416C6C20697320646F6E652E2048617088
:103700007079207072696E74696E67210049662055
:10371000796F752068617665206164646974696F8A
:103720006E616C20737465656C2073686565747375
:103730002C2063616C6962726174652074686569CC
:1037400072207072657365747320696E205365749E
:1037500074696E6773202D20485720536574757007
:10376000202D20537465656C207368656574732E15
:1037700000506C6561736520636C65616E206865DF
:10378000617462656420616E64207468656E207087
:103790007265737320746865206B6E6F622E0044CF
:1037A0006F20796F752077616E7420746F20726559
:1037B00070656174206C617374207374657020741B
:1037C0006F20726561646A757374206469737461D3
:1037D0006E6365206265747765656E206E6F7A7AB8
:1037E0006C6520616E6420686561746265643F0089
:1037F00053656C656374206E6F7A7A6C65207072A5
:1038000065686561742074656D7065726174757248
:1038100065207768696368206D61746368657320EB
:10382000796F7572206D6174657269616C2E0049E3
:10383000732066696C616D656E74206C6F61646580
:10384000643F004E6F7720492077696C6C2070725E
:103850006568656174206E6F7A7A6C6520666F7238
:1038600020504C412E00492077696C6C2072756E97
:10387000207A2063616C6962726174696F6E206E78
:103880006F772E004E6F772072656D6F76652074AE
:1038900068652074657374207072696E7420667236
:1038A0006F6D20737465656C2073686565742E0098
:1038B000506C656173652072656D6F766520736805
:1038C000697070696E672068656C706572732066D8
:1038D000697273742E00492077696C6C2072756E62
:1038E0002078797A2063616C6962726174696F6EA5
:1038F000206E6F772E2049742077696C6C2074617C
:103900006B6520617070726F782E203132206D6986
:103910006E732E0046697273742C20492077696C8F
:103920006C2072756E207468652073656C667465B2
:10393000737420746F20636865636B206D6F73749C
:1039400020636F6D6D6F6E20617373656D626C794E
:103950002070726F626C656D732E0048692C20496F
:1039600020616D20796F7572204F726967696E6191
:103970006C205072757361206933207072696E74A7
:1039800065722E20576F756C6420796F75206C6995
:103990006B65206D6520746F20677569646520799B
:1039A0006F75207468726F7567682074686520731E
:1039B000657475702070726F636573733F0048693A
:1039C0002C204920616D20796F7572204F726967D4
:1039D000696E616C2050727573612069332070725A
:1039E000696E7465722E20492077696C6C2067754A
:1039F00069646520796F75207468726F75676820D7
:103A0000612073686F7274207365747570207072B2
:103A10006F636573732C20696E2077686963682013
:103A2000746865205A2D617869732077696C6C2001
:103A300062652063616C696272617465642E2054F2
:103A400068656E2C20796F752077696C6C206265D3
:103A500020726561647920746F207072696E742EB3
:103A600000452D636F72726563743A005A2D636F5F
:103A700072726563743A00592D636F727265637474
:103A80003A00582D636F72726563743A004375741F
:103A9000746572004D6F64656C0053747269637471
:103AA000005761726E0057697A61726420656E64B6
:103AB0002073746174653A2025640A0053706F6F37
:103AC0006C4A6F696E004669726D7761726500536A
:103AD000746F70207072696E7400436865636B69FF
:103AE0006E672066696C650046696C6520696E6367
:103AF0006F6D706C6574652E20436F6E74696E75A2
:103B00006520616E797761793F0004526566726560
:103B10007368004D61696E00496E7365727420743C
:103B200068652066696C616D656E742028646F201D
:103B30006E6F74206C6F61642069742920696E74E3
:103B40006F20746865206578747275646572206191
:103B50006E64207468656E2070726573732074687B
:103B600065206B6E6F622E005665726966696361CF
:103B700074696F6E206661696C65642C2072656D76
:103B80006F7665207468652066696C616D656E741A
:103B900020616E642074727920616761696E2E0005
:103BA00053656E736F722076657269666965642C01
:103BB0002072656D6F7665207468652066696C613A
:103BC0006D656E74206E6F772E00506C6561736545
:103BD00020636865636B20746865204952207365B3
:103BE0006E736F7220636F6E6E656374696F6E2C97
:103BF00020756E6C6F61642066696C616D656E74B2
:103C00002069662070726573656E742E00506C6555
:103C100061736520756E6C6F6164207468652066E1
:103C2000696C616D656E742066697273742C2074A2
:103C300068656E20726570656174207468697320B0
:103C4000616374696F6E2E0057616974696E6720D5
:103C5000666F72206E6F7A7A6C6520616E64206286
:103C6000656420636F6F6C696E670053656C6620D6
:103C700074657374204F4B0053656C6620746573D4
:103C800074207374617274004D203834004D3834E0
:103C9000004D3234004D323320257300052E2E00A6
:103CA000257500593A202575202D3E202E2E2E00F8
:103CB000257500583A202575202D3E202E2E2E00E9
:103CC0004D656173757265642066696C616D656EC2
:103CD000742073656E736F72206C6F77206C6576DD
:103CE000656C3A2025342E3266560A004D656173A4
:103CF000757265642066696C616D656E74207365AC
:103D00006E736F722068696768206C6576656C3ABF
:103D10002025342E3266560A00457874722066617A
:103D20006E2073706565643A2025640A00507269DC
:103D30006E742066616E2073706565643A20256438
:103D40000A005465737420323A0045787472206614
:103D5000616E2073706565643A2025640A005072B4
:103D6000696E742066616E2073706565643A202503
:103D7000640A005465737420313A004D38340022CF
:103D8000206661696C65643A2042756666657220DA
:103D900066756C6C21002200256920686F7572734E
:103DA000202569206D696E757465730054494D4511
:103DB0004F55543A004D3131300046756C6C2052ED
:103DC000582042756666657200656E717565696E2C
:103DD00067202200446F6E65207072696E74696E90
:103DE000672066696C65004D3131322063616C6C0F
:103DF00065642E20456D657267656E637920537426
:103E00006F702E005072696E7465722073746F70DB
:103E10007065642064756520746F206572726F72BE
:103E2000732E2046697820746865206572726F72FF
:103E300020616E6420757365204D39393920746FA7
:103E400020726573746172742E202854656D7065DC
:103E50007261747572652069732072657365742E62
:103E600020536574206974206166746572207265E0
:103E70007374617274696E6729004E6F204C696EAD
:103E800065204E756D62657220776974682063687D
:103E900065636B73756D2C204C617374204C696E77
:103EA000653A20004E6F20436865636B73756D2023
:103EB00077697468206C696E65206E756D626572D5
:103EC0002C204C617374204C696E653A2000636845
:103ED00065636B73756D206D69736D617463682CB8
:103EE000204C617374204C696E653A20004C696EF9
:103EF00065204E756D626572206973206E6F742047
:103F00004C617374204C696E65204E756D626572EC
:103F10002B312C204C617374204C696E653A200063
:103F200053544F505045442E00544D432044524961
:103F3000564552204F56455254454D500025632555
:103F400033642F25642563005A25362E3266256397
:103F5000005A2020202D2D2D200025632533642597
:103F600025002D2D2D002533686864002533532549
:103F70003373252500555342002020200020534450
:103F8000002025753E257500203F3E257500204602
:103F900025750020463F002046524D200025632D08
:103FA0002D3A2D2D202000256325337568202563AB
:103FB0002563002563253032753A25303275256337
:103FC000256300726573756C742076616C75653A53
:103FD0002025640A0020693D25326420636E743D0B
:103FE0002532642076616C3D2532640A00636C756D
:103FF00073746572733A0020693D253264207374CE
:1040000065703D2532640A00736F727465642073B5
:10401000616D706C65733A00252D3773003A20008E
:1040200025642F3600252D32305300203A200025FC
:104030002D32307300526573756D696E6720707232
:10404000696E740050494E44412048656174696E40
:10405000670043616C6962726174696F6E20646F9E
:104060006E650043616C6962726174696E67205AA3
:104070000042656420646F6E650042656420486597
:104080006174696E670048656174696E6720646F6A
:104090006E652E0048656174696E67004E6F203052
:1040A0007846462072656365697665640053656E7F
:1040B00064696E672030784646002022257322000E
:1040C0002025236C78004449525F455849540044E8
:1040D00049525F454E5445523A202573202225739C
:1040E000220A0046696C652073656C6563746564BB
:1040F000002053697A653A200046696C65206F702C
:10410000656E65643A20004E6F772066726573684D
:104110002066696C653A20004E6F7720646F696E87
:10412000672066696C653A20002220706F73002258
:1041300020706172656E743A2200535542524F5599
:1041400054494E452043414C4C207461726765745C
:104150003A2200747279696E6720746F2063616C13
:104160006C207375622D67636F64652066696C658A
:1041700073207769746820746F6F206D616E792089
:104180006C6576656C732E0046696C616D656E7446
:104190002073656E736F7220626F61726420636852
:1041A000616E67652064657465637465643A207246
:1041B00065766973696F6E25530A00534420636105
:1041C0007264206F6B006F70656E526F6F74206643
:1041D00061696C656400766F6C756D652E696E69DA
:1041E00074206661696C656400534420696E69746B
:1041F000206661696C006F70656E206661696C6530
:10420000642C2046696C653A200043616E6E6F74C1
:1042100020656E746572207375626469723A20005D
:10422000536F7274696E672066696C657300536FB3
:104230006D652066696C65732077696C6C206E6FA4
:104240007420626520736F727465642E204D6178EE
:104250002E204E6F2E206F662066696C6573206974
:104260006E203120666F6C64657220666F722073F9
:104270006F7274696E67206973203130302E004789
:10428000312058352E302045342E30204631303004
:10429000302E30004731205A302E32302046313017
:1042A00030302E30004731205835352E3020453201
:1042B000352046313430302E3000473120592D32F0
:1042C0002E302046313030302E30004731205832E9
:1042D00034302E30204532352E30202046323230D8
:1042E000302E30004739322045302E300047312003
:1042F0005A302E332046313030302E3000473120B6
:104300005835352E302045382E302046323030306A
:104310002E300047312058352E30204533322E3094
:104320002046313830302E30004731205835352E78
:1043300030204533322E302046313037332E300096
:104340004731204634303030004D32303420533144
:10435000303030004731205A352046373230302E49
:1043600030303000473120452D312E35303030305F
:104370002046323130302E3030303030004D38333E
:104380000047393000473231004739322045302E5E
:104390003000473120583530205935352045332EEF
:1043A00036323737330047312058323030205935D4
:1043B000352045302E3439333836004731205832D5
:1043C0003030205937352045332E363237373300D9
:1043D000473120583530205937352045302E343973
:1043E000333836004731205835302059393520458B
:1043F000332E3632373733004731205832303020B1
:104400005939352045302E3439333836004731207C
:104410005832303020593131352045332E3632373D
:104420003733004731205835302059313135204558
:10443000302E343933383600473120583530205942
:104440003133352045332E3632373733004731206C
:104450005832303020593133352045302E36363100
:10446000373400473120583230302059313535202B
:1044700045322E363237373300473120583130300D
:104480002059313535204532004731205837352005
:10449000593135352045322E3500473120463130EF
:1044A0003830004731205A302E31353020463732EF
:1044B00030302E30303000473120583530205931DF
:1044C0003535004739322045302E3000473238002C
:1044D0004D313039004D313930004D3130370054D5
:1044E0002564004731205A302E3420463130303098
:1044F0002E3000473120592D332E302046313030B8
:10450000302E30004D383300473120583130302EB6
:1045100030204531322E352046313030302E3000BB
:104520004731205836302E302045392E3020463144
:104530003030302E300029431343FD42ED42E44237
:10454000CB42BA42A54294427F428943854381438C
:104550007D436443544349434043473120583530F9
:10456000205933352045252D2E336600B744A3440A
:104570009A448944794463444D44384423440D4467
:10458000F843E443D043BB43A6439243496E76616C
:104590006C6964205049442063616C2E20726573FD
:1045A000756C74732E204E6F742073746F72656413
:1045B00020746F20454550524F4D2E004D35303000
:1045C000004731205A3135204631353030004739E7
:1045D00031004731205835302059313930204530AD
:1045E00020463730303000473930004D3834004DE8
:1045F000373032204300473120583130205931388C
:1046000030204634303030004731205A3130204697
:10461000313330302E303030004D31343020533093
:10462000004D31303420533000473120452D302E9D
:1046300030373530302046323130302E3030303067
:1046400030004D3130370025530A20252D31362ECC
:10465000313653252D33640A20252D31362E31363F
:1046600053252D33640025530A20252D31362E3154
:104670003653252D33640A20252D31362E313653FD
:10468000252D33640A20252D31362E313653252D24
:1046900033640025530A20252D31362E313653251B
:1046A0002D33640A20252D31362E313653252D33F6
:1046B000640A20252D372E37535820252D336420AA
:1046C000205920252D3364002025732533640120D3
:1046D0000A000A204952203A2020202020202025AC
:1046E000332E31665600205057523A202020202089
:1046F0002025342E3166560A204245443A20202097
:1047000020202025342E3166560025530A205820BB
:1047100025640A20592025640025752E25752E252F
:10472000752E25750025730020005072696E746522
:104730007220495020416464723A002573002000C1
:10474000466C61736841697220495020416464720B
:104750003A004D4D5532202020202020204E2F4160
:104760000025642E25642E25642D256400204657DF
:104770003A0046696C2E2073656E736F7220762E38
:104780003A004D61792031382032303231004533E2
:1047900044763666756C6C0045494E53795F31300E
:1047A0006100315F37356D6D5F4D4B33002D2D2D21
:1047B0002D2D2D2D2D2D2D2D2D00207265706F206E
:1047C000556E6B6E6F776E0020332E31302E302D8C
:1047D00034343831004669726D776172653A004D44
:1047E000373032004D373031004D373032004D37E1
:1047F0003031004D313137204669727374206C615D
:104800007965722063616C2E005049442063616CAD
:104810002E2066696E6973686564005049442063A0
:10482000616C2E005072696E7420706175736564DE
:10483000005072696E742046414E004E6F7A7A6C59
:10484000652046414E004D4D5520706F77657220B2
:104850006661696C73004D4D55206C6F6164206614
:1048600061696C73004D4D55206661696C7300542D
:104870006F74616C206661696C7572657300437258
:104880006173680046696C2E2072756E6F75747363
:1048900000506F776572206661696C757265730090
:1048A0004C617374207072696E74206661696C75F6
:1048B00072657300546F74616C004C617374207086
:1048C00072696E7400416D6269656E7400566F6C3A
:1048D00074616765730054656D706572617475729B
:1048E00065730042656C7420737461747573005352
:1048F000656E736F7220696E666F004578747275AD
:1049000064657220696E666F0058595A2063616C45
:104910002E2064657461696C7300756E6B6E6F77C1
:104920006E004D4D553220636F6E6E656374656425
:1049300000446174653A00746F20756E6C6F616439
:104940002066696C616D656E7400746F206C6F61B8
:10495000642066696C616D656E7400507265737376
:1049600020746865206B6E6F6200507265686561C7
:1049700074696E6720746F20637574005072656887
:10498000656174696E6720746F20656A6563740081
:1049900050726568656174696E6720746F20756E0A
:1049A0006C6F61640050726568656174696E672040
:1049B000746F206C6F6164002F2F20616374696FC6
:1049C0006E3A70617573650025732025346420523A
:1049D000504D0A2573202534642052504D0A00683A
:1049E0006F77746F2E707275736133642E636F6DA1
:1049F00000666F72756D2E707275736133642E630D
:104A00006F6D00707275736133642E636F6D002477
:104A1000F4D43050C38E20C2A24017828B70111282
:104A20007A910D816CD90AA861E108C758660761BF
:104A30005143061E4B5D05C145A7041A41110409E7
:104A40003D9803713931034036DB0265339102D45E
:104A5000305402802E1D02632CEE01752AC501B070
:104A600028A001102781018F2564012B244B01E030
:104A7000223401AC211F018D200D01801FFC008418
:104A80001EED00971DDF00B81CD200E61BC60020FB
:104A90001BBC00641AB200B219A8000A19A0006A6F
:104AA000189900D117910040178B00B5168400317A
:104AB000167E00B31579003A157300C7146F0058BD
:104AC000146A00EE1366008813630025135E00C7A6
:104AD000125B006C12570015125400C11151007086
:104AE000114F0021114B00D61049008D1047004690
:104AF00010440002104200C00F4000800F3E0042F0
:104B00000F3C00060F3B00CB0E3800930E37005CC5
:104B10000E3500270E3400F30D3200C10D31009028
:104B20000D3000600D2E00320D2D00050D2C00D92A
:104B30000C2B00AE0C2900850C29005C0C270035DD
:104B40000C27000E0C2600E80B2400C40B2400A048
:104B50000B23007D0B23005A0B2100390B21001879
:104B60000B2000F80A1F00D90A1E00BB0A1E009D78
:104B70000A1D00800A1D00630A1C00470A1B002C46
:104B80000A1B00110A1A00F7091A00DD091900C4EE
:104B9000091900AB091900920917007B0918006375
:104BA0000917004C09160036091600200916000ADC
:104BB000091500F5081500E0081400CC081400B829
:104BC000081400A4081400900813007D0812006B5C
:104BD0000813005808120046081200340811002378
:104BE0000811001208110001081100F0071000E080
:104BF000071000D0071000C0071000B0070F00A179
:104C000007100091070E0083070F0074070F00655F
:104C1000070E0057070E0049070E003B070D002E38
:104C2000070E0020070D0013070D0006070D00F901
:104C3000060C00ED060D00E0060C00D4060C00C8C2
:104C4000060C00BC060C00B0060C00A4060B009974
:104C5000060C008D060B0082060B0077060B006C1D
:104C6000060B0061060A0057060B004C060A0042BC
:104C7000060A0038060A002E060A0024060A001A50
:104C8000060A001006090007060A00FD050900F4DF
:104C9000050900EB050900E2050900D9050900D066
:104CA000050900C7050900BE050900B5050800ADE6
:104CB000050800A50509009C050800940508008C5E
:104CC000050800840508007C050800740508006CD0
:104CD000050700650508005D050700560508004E3C
:104CE00005070047050700400508003805070031A3
:104CF0000507002A050700230507001C0506001606
:104D00000507000F0507000805060002050700FB60
:104D1000040600F5040700EE040600E8040600E2BD
:104D2000040700DB040600D5040600CF040600C912
:104D3000040600C3040600BD040600B7040600B163
:104D4000040500AC040600A6040600A00405009BB0
:104D500004060095040500900406008A04050085F9
:104D6000040500800406007A04050075040500703F
:104D70000405006B04050066040500610405005C81
:104D800004050057040500520405004D04050048C1
:104D9000040500430405003E0404003A0405003500
:104DA000040500300404002C04050027040400233B
:104DB0000405001E0404001A040400160405001172
:104DC0000404000D040400090405000404040000A8
:104DD000040400FC030400F8030400F4030400F0DE
:104DE000030400EC030400E8030400E4030400E00F
:104DF000030400DC030400D8030400D4030400D03F
:104E0000030400CC030400C8030300C5030300240B
:104E1000F404D9201BC40C5C0E9804C4095F02651D
:104E2000077101F405F900FB04B30048048700C1D1
:104E30000369005803550003034500BE023A00848D
:104E400002310053022A002902250004022000E456
:104E5000011C00C8011900AF01170098011400845B
:104E6000011300710110006101100051010E004397
:104E7000010D0036010B002B010B0020010B00156A
:104E80000109000C01090003010800FB000800F300
:104E9000000800EB000700E4000600DE000600D872
:104EA000000600D2000600CC000500C7000500C2C5
:104EB000000500BD000400B9000400B5000400B105
:104EC000000400AD000400A9000400A5000300A236
:104ED0000003009F0004009B00030098000300955E
:104EE00000020093000300900003008D0002008B7D
:104EF0000003008800020086000200840003008195
:104F00000002007F0002007D0002007B00020079A9
:104F100000020077000100760002007400020072B7
:104F2000000100710002006F0002006D0001006CC2
:104F30000002006A000100690002006700010066CB
:104F400000010065000100640002006200010061D0
:104F5000000100600001005F0002005D0001005CD4
:104F60000001005B0001005A0001005900010058D7
:104F700000010057000100560001005500010054D7
:104F800000010053000000530001005200010051D5
:104F9000000100500001004F0001004E0000004ED3
:104FA0000001004D0001004C0001004B0000004BCF
:104FB0000001004A000100490001004800000048CB
:104FC00000010047000100460000004600010045C6
:104FD00000000045000100440001004300000043C0
:104FE00000010042000000420001004100000041B9
:104FF000000100400001003F0000003F0001003EB2
:105000000000003E0001003D0000003D0001003CAA
:105010000000003C0000003C0001003B0000003BA1
:105020000001003A0000003A000100390000003998
:10503000000100380000003800000038000100378F
:105040000000003700010036000000360000003686
:10505000000100350000003500000035000100347B
:105060000000003400000034000100330000003371
:105070000000003300010032000000320000003266
:10508000000100310000003100000031000100305B
:1050900000000030000000300001002F0000002F51
:1050A0000000002F0000002F0001002E0000002E45
:1050B0000000002E0001002D0000002D0000002D3A
:1050C0000000002D0001002C0000002C0000002C2E
:1050D0000000002C0001002B0000002B0000002B22
:1050E0000000002B0001002A0000002A0000002A16
:1050F0000000002A0001002900000029000000290A
:1051000000000029000000290001002800000028FC
:1051100000000028000000280000002800010027EF
:1051200000000027000000270000002700000027E3
:1051300000010026000000260000002600000026D6
:1051400000000026000100250000002500000025C9
:1051500000000025000000250000002500010024BB
:1051600000000024000000240000002400000024AF
:1051700000010023000000230000002300000023A2
:105180000000002300000023000000230001002293
:105190000000002200000022000000220000002287
:1051A0000000002200010021000000210000002179
:1051B000000000210000002100000021000000216B
:1051C000000100200000002000000020000000205E
:1051D000000000200000002000000020000000204F
:1051E0000001001F0000001F0000001F0000001F42
:1051F0000000001F0000001F0000001F0001001E33
:105200000000001E0000001E0000001E0000004301
:105210006F6F6C646F776E005072656865617420A3
:10522000746865206E6F7A7A6C6521004552524F22
:10523000523A0046696C616D656E742065787472CF
:105240007564696E672026207769746820636F72C1
:105250007265637420636F6C6F723F004175746F89
:105260006C6F6164696E672066696C616D656E74F0
:10527000206973206163746976652C206A75737484
:1052800020707265737320746865206B6E6F622086
:10529000616E6420696E736572742066696C616DFD
:1052A000656E742E2E2E005072696E742074696DB6
:1052B000650046696C616D656E7420757365640088
:1052C000546F74616C207072696E742074696D65BE
:1052D00000546F74616C2066696C616D656E74005A
:1052E0005269676874004C6566740059206469737C
:1052F00074616E63652066726F6D206D696E005318
:10530000657665726520736B657700536C696768B5
:105310007420736B6577004D6561737572656420E9
:10532000736B6577005B303B305D20706F696E7426
:10533000206F66667365740041646A757374696E84
:1053400067205A3A00526561722073696465205B78
:10535000756D5D0046726F6E7420736964655B7570
:105360006D5D00526967687420736964655B756D73
:105370005D004C6566742073696465205B756D5DC6
:10538000005365742074656D706572617475726523
:105390003A00464C4558202D20203234302F3530ED
:1053A0000050502020202D20203235342F31303035
:1053B0000048495053202D20203232302F313030D8
:1053C0000041425320202D20203235352F313030FE
:1053D0000050564220202D20203231352F37350005
:1053E00050432020202D20203237352F31313000FE
:1053F00041534120202D20203236302F31303500CE
:1054000050455420202D20203233302F3835005085
:105410004C4120202D20203231352F3630006E6F48
:105420007A7A6C65202D20203235302F300066616D
:10543000726D2020202D20203235302F383000256D
:105440002D31322E313253252B382E3166004578DE
:105450007472756465723A006D6D00590058005899
:105460003A00593A005A3A002563252D31332E313E
:105470003353252B352E33660025533A0A25313810
:105480002E32666D200A25533A0A2531306C646845
:10549000202530326868646D202530326868647376
:1054A0000025533A0A2531382E32666D200A2553DD
:1054B0003A0A2531306C64642025303268686468AB
:1054C000202530326868646D0025362E32666D6D99
:1054D0000025530A25530A25533A0A25533A002535
:1054E000332E32660100252D31342E3134533A0AE1
:1054F00025530A252D31342E3134533A25332E329B
:1055000066010A252D31342E3134533A25332E329B
:10551000660100506C656173652070756C6C206F5E
:1055200075742066696C616D656E7420696D6D655A
:1055300064696174656C7900556E6C6F6164696E45
:10554000672066696C616D656E7400526573657481
:105550000052656E616D65004669727374206C61FE
:105560007965722063616C2E0053656C656374000D
:10557000537465656C20736865657473005375704A
:10558000706F7274004661696C207374617473206B
:105590004D4D55004661696C2073746174730053FE
:1055A0007461746973746963730043616C696272D6
:1055B0006174696F6E004175746F4C6F6164206631
:1055C000696C616D656E74004375742066696C6109
:1055D0006D656E7400456A6563742066696C616D03
:1055E000656E7400556E6C6F61642066696C616DE8
:1055F000656E74004C6F616420746F206E6F7A7AF0
:105600006C65004C6F61642066696C616D656E74D9
:10561000004E6F2053442063617264005072696EC3
:10562000742066726F6D20534400526573756D650A
:10563000207072696E7400506175736520707269B4
:105640006E7400507265686561740054756E650013
:105650004C6976652061646A757374205A00496EDE
:10566000666F2073637265656E0046696E69736864
:10567000696E67206D6F76656D656E74730042723A
:10568000696768746E65737300417373697374003E
:1056900053696C656E74004F6E6365004C6F756482
:1056A00000536F756E64004D4D55204D6F6465005D
:1056B0004372617368206465742E00537465616C75
:1056C0007468004E6F726D616C0046616E7320638A
:1056D0006865636B00506175736500436F6E742E6F
:1056E00000465320416374696F6E0046696C2E203A
:1056F00073656E736F72004368616E6765206669DB
:105700006C616D656E7400466C6F770053706565F3
:1057100064004E2F41004D61676E65747320636FA6
:105720006D702E005A2D70726F6265206E722E00A1
:105730004D6573680054696D656F757400427269D8
:10574000676874004D6F6465004175746F0044694B
:105750006D004C6576656C2044696D6D6564004C28
:105760006576656C204272696768740046616E20D8
:10577000737065656400426564004E6F7A7A6C658B
:105780000053657474696E6773005072696E74209B
:1057900061626F72746564004572723A20505249BA
:1057A0004E542046414E204552524F52004572728F
:1057B0003A20455854522E2046414E204552524FD1
:1057C00052002F2F20616374696F6E3A7061757398
:1057D0006564002F2F20616374696F6E3A72657380
:1057E000756D6564002F2F20616374696F6E3A7266
:1057F0006573756D65002F2F20616374696F6E3A54
:1058000063616E63656C004D3630300043757374B0
:105810006F6D00536174696E200054657874757201
:1058200000536D6F6F74680047312059252D2E325B
:10583000662045252D2E33660047312058256420EB
:1058400059252D2E32662045252D2E336600667390
:10585000656E736F725F636865636B706F696E749A
:105860005F7072696E74006673656E736F72207616
:10587000302E3420696E206661756C742072616E02
:10588000676520342E362D3556202D20756E636FBA
:105890006E6E6563746564006673656E736F722007
:1058A000696E20666F7262696464656E2072616EF3
:1058B000676520312E352D3356202D2063686563B2
:1058C0006B2073656E736F7200312E3000312E3590
:1058D00000554E4B4E4F574E004C413130433A200D
:1058E0004C696E65617220416476616E6365206DFE
:1058F0006F64653A20004C413130433A2041646A7C
:10590000757374656420452D4A65726B3A200000FA
:105910000E1315110E0000000412091204000000FD
:105920001C1F11111F00000006191803130C00049E
:105930000E1F041C000000040A0A0A0A11110E00BE
:105940001F1511151F0000000103161C08000000A0
:1059500000110A04110A040C12120C0000000025A8
:1059600063252D31382E3138532563005B25735D57
:105970002563005B25535D2563002563252D3138A4
:105980002E31385300756E6B6E6F776E20737461B5
:1059900074650020302E34206F72206E657765723A
:1059A0000020302E33206F72206F6C6465720030DF
:1059B0000B0000F00C3200900E64000010960060A6
:1059C00011C800B012FA00E0132C0100155E0100AE
:1059D0001690010017C201F017F401457874727532
:1059E0006465722066616E207370656564206973FA
:1059F000206C6F776572207468616E2065787065C1
:105A000063746564005072696E742066616E207301
:105A100070656564206973206C6F776572207468A7
:105A2000616E206578706563746564004D494E54FD
:105A3000454D5020414D42004D415854454D500078
:105A40004D415854454D5020424544004D41585415
:105A5000454D5020414D4200202D20496E76616C0D
:105A60006964206578747275646572206E756D6204
:105A7000657220210070012C0190012701B00122E4
:105A800001C0011D01F00118011002130130020EC6
:105A9000016002090190020401C002FF000003FA44
:105AA000004003F5008003F000D003EB002004E683
:105AB000007004E100E004DC004005D700C005D21E
:105AC000004006CD00D006C8008007C3003008BEE5
:105AD00000F008B900C009B400B00AAF00B00BAACA
