:100000000C9471340C94A2340C94A2340C94A23449
:100010000C94A2340C9438CB0C94A2340C945398C6
:100020000C94C3CA0C94A2340C94A2340C94A23441
:100030000C94A2340C94A2340C9405DB0C94E3FDD4
:100040000C94A2340C9461990C94A2340C94A234B4
:100050000C94A2340C94A2340C94A2340C943694D4
:100060000C94A2340C942BF80C94A2340C94A2346B
:100070000C94A2340C94A2340C94A2340C94A234A8
:100080000C94A2340C94A2340C94A2340C94A23498
:100090000C94E7F70C94A2340C94A2340C94A23480
:1000A0000C94A2340C94A2340C94B3FC0C94A2349F
:1000B0000C94A2340C9495FC0C94A2340C94A234AD
:1000C0000C94A2340C94A2340C94A2340C9408FC2A
:1000D0000C94A2340C94A2340C94A2340C94A23448
:1000E0000C94A234529460946E947B948D94949466
:1000F000B694CC94CFA9D8A97DA94CA91CA9C7AC0A
:1001000013AA32ABC8AB1EAC3AAC71AC62B57EB7C9
:100110004EB743B738B72DB722B7A1B791B7FBB6E3
:10012000CDB6B1B6E2BC93BCE2BCE5BC56BD85BD64
:10013000E2BCE2BCA4BD7EFE81FE70FE74FE7AFECF
:10014000B8FE85FE89FE8FFE93FE97FE9DFEA1FE02
:10015000A5FEB8FEABFEAFFEB3FE7101E301CF0119
:100160001302E1012F0233026F0297018501510250
:1001700045024D02FD012F02B5019101DF01B901D8
:10018000B9014B02B9014B025B01A7019D01670256
:100190005F021B02E5017B01A1012102710217022E
:1001A000A1019B01DB01E9017501D3016902C901CC
:1001B0001F0251018F01BB015D01F701ED017901C2
:1001C0000D027D01084AD73B3BCE016E84BCBFFDCA
:1001D000C12F3D6C74319ABD56833DDA3D00C77F17
:1001E00011BED9E4BB4C3E916BAAAABE00000080B0
:1001F0003F05A84CCDB2D44EB93836A9020C50B93F
:10020000918688083CA6AAAA2ABE000000803F0763
:10021000634236B79BD8A71A39685618AEBAAB55A1
:100220008C1D3CB7CC5763BD6DEDFD753EF6177266
:1002300031BF000000803F08000000BE9224491238
:100240003EABAAAA2ABECDCCCC4C3E00000080BE5C
:10025000ABAAAAAA3E00000000BF000000803F0039
:1002600000000000084178D3BB4387D1133D190E2D
:100270003CC3BD4282AD2B3E68EC8276BED98FE195
:10028000A93E4C80EFFFBE01C4FF7F3F000000008D
:1002900000000D94785B0D94403D0D94845C0D94AA
:1002A000D2190D94A5740D949C6F0D944C3E0D9431
:1002B0003E4A0D94F96E0D94B0490D94B4740D94AA
:1002C000BF5D0D94BA630D94721B0D945B630D9426
:1002D000FF420D94F0630D944F1B0D94E0800D943C
:1002E000131B0D941A020D94A5430D9402680D94EE
:1002F0003C440D94DA740D9495670D94E6740D9456
:10030000CA630D94313D0D94793C0D945C020D94BB
:1003100091440D944F480D94355C0D94AE470D9467
:10032000A8740D949D020D94064A0D94441A0D94E0
:1003300052020D94B3570D94BF670D9420670D942E
:10034000981B0D940A670D94895B0D94374A0D94A0
:10035000B3490D94F61C0D94B5430D943D740D9462
:10036000D2640D940D640D941E990D9493020D9416
:10037000CF180D949F490D94AB740D942F570D9485
:100380002A1D0D944FA20D9498610D94815B0D94DC
:1003900001650D9488740D9452010D94091B0D9400
:1003A00024020D9481590D9472740D94304A0D9469
:1003B000144A0D94B33D0D94DC670D94601B0D94AD
:1003C000A7020D9438020D941F020D9465670D94D9
:1003D00074470D94F0670D94561B0D94C6740D94DC
:1003E00020450D941E1B0D94D53C0D942B440D946B
:1003F000BD740D946C110D9403640D9489020D94D9
:10040000725B0D94A9430D94BB1C0D94294A0D9465
:1004100056610D94481B0D94FA470D94DD740D94AC
:10042000C8570D94885D0D942E020D940F1C0D94E9
:10043000B9670D940D4A0D945B670D947A5D0D9428
:100440008B740D94AB670D941B4A0D94224A0D9446
:10045000871C0D94AF650D946A440D94A6570D94B6
:10046000B1020D944B1C0D9442020D941E440D9448
:10047000FD490D9453400D94454A0D94391A0D943D
:10048000987F0D9493590D9451110D9470020D9411
:10049000F4800D949D3D0D94AD490D947F020D9413
:1004A000E21B0D9466020D94A7610D944C4A0D94C5
:1004B0004F680D945E1D0D94E3620D94411B0D94E5
:1004C0004E670D94D3570D9414440D94DD630D9431
:1004D0003C670D947B740D940C3C0D94A3110D940A
:1004E0004A020D94BD676E616E00696E66004E41F2
:1004F0004E494E495459494E46CDCCCC3D0AD7239E
:100500003C17B7D13877CC2B329595E6241FB14FE5
:100510000A000020410000C84200401C4620BCBE2A
:100520004CCA1B0E5AAEC59D7400407A10F35A0097
:10053000A0724E18090010A5D4E80000E87648170C
:100540000000E40B54020000CA9A3B000000E1F5F1
:1005500005000080969800000040420F000000A0B7
:100560008601000000102700000000E803000000E2
:10057000006400000000000A00000000000100000C
:100580000000002C76D888DC674F0823DFC1DFAE7F
:1005900059E1B1B796E5E3E453C63AE65199769648
:1005A000E8E6C28426EB898C9B62ED407C6FFCEF11
:1005B000BC9C9F40F2BAA56FA5F490055A2AF75C3F
:1005C000936B6CF9676DC11BFCE0E40D47FEF520F1
:1005D000E6B500D0ED902E030094357705008084B9
:1005E0001E080000204E0A000000C80C33333333CD
:1005F0000F986E12831141EF8D2114893BE6551639
:10060000CFFEE6DB18D1844B381BF77C1D901DA470
:10061000BBE424203284725E228100C9F124ECA163
:10062000E53D276364696E6F70737578585B0025CC
:1006300075206279746573207772697474656E20B1
:10064000746F202553206174206164647265737334
:10065000203078253038780A00442564202D205237
:100660006561642F57726974652025530A004545FA
:1006700050524F4D00442D31202D20456E646C6545
:100680007373206C6F6F700A005344207072696E30
:1006900074696E67206279746520004163746976BD
:1006A000652045787472756465723A2000496E76EB
:1006B000616C6964206578747275646572005A2093
:1006C0004F666673657400556E6B6E6F776E206350
:1006D0006F6D6D616E643A2022004D3230302049DA
:1006E0006E76616C696420657874727564657220D9
:1006F000007A5F6D61783A20007A5F6D696E3A200A
:1007000000795F6D61783A2000795F6D696E3A20FB
:1007100000785F6D61783A20006F70656E0054520A
:100720004947474552454400785F6D696E3A20005D
:100730005265706F7274696E6720656E6473746F52
:1007400070207374617475730053494C454E5400A6
:100750004E4F524D414C002553204D4F44453A20B9
:1007600050657263656E7420646F6E653A2025680B
:1007700068643B207072696E742074696D652072C4
:10078000656D61696E696E6720696E206D696E7353
:100790003A2025643B204368616E676520696E20BE
:1007A0006D696E733A2025640A00456E642066699F
:1007B0006C65206C69737400426567696E206669B8
:1007C0006C65206C697374000A50494E4441207472
:1007D000656D70657261747572653A20252E31669B
:1007E000205A20736869667420286D6D293A202587
:1007F0002E3366000A537465703A2025642F360A3A
:10080000000A537465703A2025642F362028736BD4
:100810006970706564290A50494E44412074656DC1
:1008200070657261747572653A202564205A207370
:100830006869667420286D6D293A300A000A5A45A5
:10084000524F3A20252E33660A0073746172742069
:1008500074656D70657261747572653A20252E310C
:10086000660A0025642020252E3266002553205874
:100870003A20252E356620593A20252E3566205AF5
:100880003A20252E35660A00536C6565702E2E2E93
:100890000045303A25642052504D0A50524E303AAD
:1008A00025642052504D0A00256400416476616E33
:1008B0006365204B3D004B206F7574206F6620618F
:1008C0006C6C6F7765642072616E67652100200A29
:1008D000200A20004D32323020532569002553462E
:1008E000696C616D656E742073657474696E67738D
:1008F0003A2044697361626C65640A002553466955
:100900006C616D656E742073657474696E67733A9B
:100910000A25532020204D3230302044252E3266C7
:100920000A002553526574726163743A20533D4C3A
:10093000656E67746820286D6D2920463A5370658E
:10094000656420286D6D2F6D29205A3A205A4C6914
:10095000667420286D6D290A25532020204D3230E1
:10096000372053252E32662046252E3266205A2502
:100970002E32660A25535265636F7665723A2053AC
:100980003D4578747261206C656E67746820286DCF
:100990006D2920463A537065656420286D6D2F6D72
:1009A000290A25532020204D3230382053252E325D
:1009B000662046252E32660A25534175746F2D52E6
:1009C0006574726163743A20533D3020746F206403
:1009D000697361626C652C203120746F20696E74BC
:1009E00065727072657420657874727564652D6FB8
:1009F0006E6C79206D6F76657320617320726574FB
:100A00007261637473206F72207265636F766572B2
:100A10006965730A25532020204D32303920532533
:100A2000640A002553504944206865617462656416
:100A30002073657474696E67733A0A255320202009
:100A40004D3330342050252E32662049252E326613
:100A50002044252E32660A002553504944207365F0
:100A60007474696E67733A0A25532020204D333021
:100A7000312050252E32662049252E32662044250D
:100A80002E32660A002553537465707320706572A8
:100A900020756E69743A0A255320204D393220584A
:100AA000252E32662059252E3266205A252E326692
:100AB0002045252E32660A255355537465702072E1
:100AC00065736F6C7574696F6E3A200A2553204DFB
:100AD0003335302058256420592564205A25642058
:100AE0004525640A25534D6178696D756D206665ED
:100AF00065647261746573202D206E6F726D616C18
:100B000020286D6D2F73293A0A255320204D32304D
:100B1000332058252E32662059252E3266205A253C
:100B20002E32662045252E32660A25534D6178699E
:100B30006D756D20666565647261746573202D2026
:100B4000737465616C746820286D6D2F73293A0A7F
:100B5000255320204D3230332058252E326620591F
:100B6000252E3266205A252E32662045252E3266E5
:100B70000A25534D6178696D756D20616363656CFD
:100B800065726174696F6E202D206E6F726D616C7D
:100B900020286D6D2F7332293A0A255320204D32BB
:100BA00030312058256C752059256C75205A256CDC
:100BB000752045256C750A25534D6178696D756DF5
:100BC00020616363656C65726174696F6E202D20AE
:100BD000737465616C746820286D6D2F7332293AC7
:100BE0000A255320204D3230312058256C7520596C
:100BF000256C75205A256C752045256C750A255382
:100C0000416363656C65726174696F6E3A20503D33
:100C10007072696E742C20523D72657472616374D7
:100C20002C20543D74726176656C0A255320204D4A
:100C30003230342050252E32662052252E32662046
:100C400054252E32660A2553416476616E636564CD
:100C5000207661726961626C65733A20533D4D691B
:100C60006E20666565647261746520286D6D2F73F2
:100C7000292C20543D4D696E2074726176656C207C
:100C8000666565647261746520286D6D2F73292C0B
:100C900020423D6D696E696D756D207365676D6588
:100CA0006E742074696D6520286D73292C20583D61
:100CB0006D6178696D756D205859206A65726B2079
:100CC000286D6D2F73292C20205A3D6D6178696D38
:100CD000756D205A206A65726B20286D6D2F7329FF
:100CE0002C2020453D6D6178696D756D2045206A29
:100CF00065726B20286D6D2F73290A255320204DB6
:100D00003230352053252E32662054252E3266206F
:100D100042252E32662058252E32662059252E3245
:100D200066205A252E32662045252E32660A255326
:100D3000486F6D65206F666673657420286D6D2938
:100D40003A0A255320204D3230362058252E32665F
:100D50002059252E3266205A252E32660A00462555
:100D6000642025640A004D4D55203C3D2027462532
:100D700064202564270A004361703A25533A2563AD
:100D80000A00455854454E4445445F4D32300041B9
:100D900055544F5245504F52545F504F5349544948
:100DA0004F4E004155544F5245504F52545F4641AB
:100DB0004E53004155544F5245504F52545F544585
:100DC0004D5000005A30005A31005930005931005E
:100DD000583000583100456E642073746F70732072
:100DE000646961670044656C6574696F6E20666153
:100DF000696C65642C2046696C653A200046696C14
:100E0000652064656C657465643A004E6F742053A8
:100E100044207072696E74696E67005072696E74F6
:100E2000207361766564005344207072696E74208B
:100E3000706175736564004F4B004241440052413C
:100E40004D426F2046414E200043524153485F437C
:100E5000414E43454C0043524153485F5245434F36
:100E60005645520043524153485F5245434F564501
:100E7000520022283229004475706C6963617465E0
:100E800020542D636F64652069676E6F7265642EF0
:100E900000496E76616C6964205420636F64652E2E
:100EA00000556E6B6E6F776E204D20636F64653AF0
:100EB000202573200A002C204D3930372045206929
:100EC000676E6F726564006E6F2076616C69642076
:100ED000636F6D6D616E64002C20002C20002C204F
:100EE000006E2F61002C20002C20002C20006E2F83
:100EF0006100503A005761697420666F7220504952
:100F00004E4441207461726765742074656D70652C
:100F10007261747572653A004155544F004C414EF0
:100F2000472053454C20464F5243454400256925F0
:100F3000250A00256925250A00222831290030309C
:100F40003030303030302D303030302D30303030A7
:100F50002D303030302D3030303030303030303097
:100F600030300020555549443A003100204558544E
:100F700052554445525F434F554E543A0050727596
:100F80007361206933204D4B335300204D4143485A
:100F9000494E455F545950453A00312E3000206289
:100FA00061736564206F6E204D61726C696E2046BE
:100FB00049524D574152455F55524C3A68747470CE
:100FC000733A2F2F6769746875622E636F6D2F7087
:100FD0007275736133642F50727573612D46697237
:100FE0006D776172652050524F544F434F4C5F569E
:100FF000455253494F4E3A004649524D574152458A
:101000005F4E414D453A50727573612D4669726D60
:101010007761726520004D31313320530020423A10
:101020000020453A00543A006F6B20006E2F61009B
:101030003F546F736869626120466C6173684169EF
:1010400072204765744950206661696C65640A00C6
:101050002569206D696E2C20256920736563004920
:101060006E76616C6964204D20636F64653A20255B
:1010700073200A00556E6B6E6F776E204720636F8A
:1010800064653A202573200A004D65736820626507
:1010900064206C6576656C696E67206E6F74206184
:1010A00063746976652E002020000A4D65617375B2
:1010B00072656420706F696E74733A000A5A207307
:1010C0006561726368206865696768743A20004EDC
:1010D000756D20582C593A200050494E44412070DB
:1010E000726F62652063616C6962726174696F6EB0
:1010F00020737461727400473238205730004E6F8D
:101100002050494E444120746865726D6973746F54
:101110007200736574006E6F7A7A6C65004D424C94
:101120000046520042656174004C7A004C616E6763
:10113000005265760046697200534E20696E7661F2
:101140006C696400534E004D32380052455345548B
:10115000004D4D55524553004D32340075766C6F3D
:10116000007468780046414E0046414E50494E5446
:1011700053540050524E0050696E67005052555300
:1011800041005345545F43484F505F005345545FFF
:10119000535445505F005345545F574156455F00D7
:1011A000544D435F0043524153485F43414E4345D2
:1011B0004C0043524153485F5245434F56455200FD
:1011C00043524153485F44455445435445440043CA
:1011D000524153485F004D3120004D30004D3131B8
:1011E0003700472D636F646520736C696365642005
:1011F000666F72206120646966666572656E742030
:101200006C6576656C2E20436F6E74696E75653FF4
:1012100000472D636F646520736C696365642066A5
:101220006F72206120646966666572656E74206CF9
:101230006576656C2E20506C656173652072652D36
:10124000736C69636520746865206D6F64656C20DC
:10125000616761696E2E205072696E742063616EE1
:1012600063656C6C65642E00472D636F6465207345
:101270006C6963656420666F722061206E657765B6
:1012800072206669726D776172652E20506C65619F
:101290007365207570646174652074686520666983
:1012A000726D776172652E205072696E7420636171
:1012B0006E63656C6C65642E00472D636F646520FA
:1012C000736C6963656420666F722061206E657758
:1012D0006572206669726D776172652E20436F6E4C
:1012E00074696E75653F00472D636F646520736C8C
:1012F0006963656420666F72206120646966666553
:1013000072656E74207072696E7465722074797083
:10131000652E20436F6E74696E75653F00472D63BF
:101320006F646520736C6963656420666F72206109
:1013300020646966666572656E74207072696E7489
:10134000657220747970652E20506C65617365201C
:1013500072652D736C69636520746865206D6F64B8
:10136000656C20616761696E2E205072696E742011
:1013700063616E63656C6C65642E00507265737397
:1013800020746865206B6E6F6220746F20707265C8
:1013900068656174206E6F7A7A6C6520616E642076
:1013A000636F6E74696E75652E00506C6561736550
:1013B00020707265737320746865206B6E6F622095
:1013C000746F20756E6C6F61642066696C616D6509
:1013D0006E740052656D6F7665206F6C642066696F
:1013E0006C616D656E7420616E64207072657373DC
:1013F00020746865206B6E6F6220746F2073746157
:101400007274206C6F6164696E67206E6577206608
:10141000696C616D656E742E00616E64207072651A
:10142000737320746865206B6E6F6200496E73651C
:1014300072742066696C616D656E7400436F6C6FC9
:1014400072206E6F7420636F7272656374004669F8
:101450006C616D656E74206E6F74206C6F61646575
:1014600064004368616E67656420636F72726563D0
:10147000746C793F004C6F6164696E6720636F6CB8
:101480006F72004368616E6765207375636365738F
:10149000732100506C65617365206F70656E206903
:1014A000646C657220616E642072656D6F76652074
:1014B00066696C616D656E74206D616E75616C6CD2
:1014C000792E005761732066696C616D656E7420BA
:1014D000756E6C6F61642073756363657373667595
:1014E0006C3F00506C656173652075706772616454
:1014F000652E004E6577206669726D776172652092
:1015000076657273696F6E20617661696C61626C79
:10151000653A0057616974696E6720666F72205082
:10152000494E44412070726F626520636F6F6C6931
:101530006E670043726173682064657465637465E7
:10154000642E20526573756D65207072696E743FEC
:101550000043726173682064657465637465642E0A
:101560000043686F6F736520657874727564657287
:101570003A0043686F6F73652066696C616D656ED4
:10158000743A004E6F206D6F76652E005374616261
:101590006C6520616D6269656E742074656D70653F
:1015A0007261747572652032312D32364320697351
:1015B000206E6565646564206120726967696420D6
:1015C0007374616E642069732072657175697265E8
:1015D000642E00506C656173652072756E205859D9
:1015E0005A2063616C6962726174696F6E2066690A
:1015F0007273742E005761697420666F7220757360
:1016000065722E2E2E00435A5058003B53006164E1
:10161000635F696E6974000A204F726967696E6161
:101620006C2050727573612069330A20202050723B
:1016300075736120526573656172636800200A20CA
:101640000A200A2000416C6C2044617461005365DB
:101650007276696365207072657000536869707096
:10166000696E672070726570005374617469737479
:10167000696373004C616E6775616765004552412F
:1016800053494E4720616C6C20646174610046616F
:1016900063746F7279205245534554004449534155
:1016A000424C454400454E41424C4544002028737D
:1016B000656E736F7220626F617264207265766905
:1016C00073696F6E3A2553290A004653656E736F2E
:1016D0007220255300494E5434004D4B33534D4D29
:1016E000553253004E4F4D4B3353002E014E4F4356
:1016F00054554100414C5446414E004A756C2031CE
:1017000033203230323100436F6D70696C65643A5A
:101710002000286E6F6E652C2064656661756C74A0
:1017200020636F6E66696729004A756C203133202B
:10173000323032312031303A35373A3334002033C9
:101740002E31302E302D3434383100737461727480
:1017500000534E20757064617465206661696C6524
:101760006400534E207570646174656400435A5080
:101770005800416E206572726F72207768696C65DF
:101780002077726974696E6720746F2074686520B1
:10179000534420436172642E002055706C6F616465
:1017A00020696E2070726F677265737300205A3AF9
:1017B0000020593A0020583A0043524153485F44B0
:1017C0004554454354454458590043524153485F9A
:1017D0004445544543544544590043524153485F9E
:1017E000444554454354454458004D3239004578EA
:1017F0007465726E616C2053504920666C61736829
:101800000A58464C415348206973206E6F74207209
:1018100065732D0A706F6E64696E672E204C616E61
:1018200067756167650A73776974636820756E61AF
:101830007661696C61626C652E005072757361200F
:101840006933204D4B3353204F4B2E00437261734D
:10185000684465746563742044495341424C45446F
:1018600000437261736844657465637420454E413A
:10187000424C454421004578747275646572206657
:10188000616E20747970653A200058464C41534887
:10189000206E6F7420726573706F6E64696E672E50
:1018A000002020506C616E6E6572427566666572CE
:1018B00042797465733A20002046726565204D6553
:1018C0006D6F72793A2000207C20417574686F72C8
:1018D0003A2000204C617374205570646174656413
:1018E0003A200020536F66747761726520526573E9
:1018F000657400205761746368646F672052657374
:101900006574002042726F776E206F757420526587
:10191000736574002045787465726E616C20526541
:1019200073657400506F7765725570006572726FE1
:10193000722077726974696E6720746F2066696CB3
:101940006500656E6473746F7073206869743A2003
:1019500000446F6E6520736176696E672066696CFE
:10196000652E006F6B004D4B3353206669726D77A7
:10197000617265206465746563746564206F6E20B0
:101980004D4B33207072696E746572004261642041
:10199000696E7465727275707400576174636864FF
:1019A0006F672074696D656F757400537461746935
:1019B00063206D656D6F7279206861730A62656579
:1019C0006E206F7665727772697474656E00464931
:1019D000524D57415245204352415348210A4372C8
:1019E00061736820726561736F6E3A0A00426C61C0
:1019F000636B6F7574206F636375727265642E20FC
:101A00005265636F766572207072696E743F005321
:101A1000656C66746573742077696C6C20626520F0
:101A200072756E20746F2063616C69627261746597
:101A30002061636375726174652073656E736F7284
:101A40006C657373207265686F6D696E672E0054E4
:101A500068657265206973207374696C6C206120FD
:101A60006E65656420746F206D616B65205A20631C
:101A7000616C6962726174696F6E2E20506C656171
:101A8000736520666F6C6C6F7720746865206D617C
:101A90006E75616C2C206368617074657220466994
:101AA0007273742073746570732C2073656374692A
:101AB0006F6E2043616C6962726174696F6E20663B
:101AC0006C6F772E005072696E7465722068617356
:101AD000206E6F74206265656E2063616C6962724E
:101AE00061746564207965742E20506C656173653E
:101AF00020666F6C6C6F7720746865206D616E7501
:101B0000616C2C2063686170746572204669727321
:101B1000742073746570732C2073656374696F6EC1
:101B20002043616C6962726174696F6E20666C6FCC
:101B3000772E004F6C642073657474696E67732030
:101B4000666F756E642E2044656661756C742050F6
:101B500049442C20457374657073206574632E208E
:101B600077696C6C206265207365742E0057617212
:101B70006E696E673A20626F7468207072696E7465
:101B80006572207479706520616E64206D6F746871
:101B90006572626F61726420747970652063686138
:101BA0006E6765642E005761726E696E673A2070C9
:101BB00072696E7465722074797065206368616EF5
:101BC0006765642E005761726E696E673A206D6FAB
:101BD00074686572626F61726420747970652063E5
:101BE00068616E6765642E00776F726C6420636F46
:101BF0006F7264696E617465733A2028252E3366AE
:101C00002C20252E33662C20252E3366290A0043EE
:101C1000757272656E7420706F73205A5F415849F7
:101C2000533A252E33660A43757272656E742070BE
:101C30006F7320455F415849533A252E33660A0099
:101C400041667465722077616974696E6720666F9A
:101C5000722074656D703A0A43757272656E7420F5
:101C6000706F7320585F415849533A252E33660AE6
:101C700043757272656E7420706F7320595F41589E
:101C800049533A252E33660A007265636F76657292
:101C90005F6D616368696E655F73746174655F61D0
:101CA000667465725F706F7765725F70616E69638D
:101CB0002C20696E697469616C2000505255534143
:101CC0002075766C6F004734205330004D3236203B
:101CD00053256C75004D3130362053004D32323073
:101CE0002053256400473120462564004D383200DA
:101CF0004739322045004731204525302E336620B4
:101D00004632373030004D32303420502566205274
:101D1000256620542566004731205A25660050521A
:101D2000555341204D424C20563100473120582513
:101D3000662059256620463330303000506F736975
:101D400074696F6E20726561642066726F6D2065C4
:101D50006570726F6D3A004D3233202573002E6727
:101D6000636F002C20666565646D756C7469706CBA
:101D7000793A0046656564726174653A00473120BE
:101D800045252D302E33662046323730300047311E
:101D90002045352046313230004D3833004D31304A
:101DA0003920532564004D31393020532564004DCE
:101DB00031303420532564004732382058205900F0
:101DC0004731205A252E33662046383030004731BF
:101DD000205A252D302E33662046252D302E336691
:101DE0000047312045252D302E33662046323730CE
:101DF00030004D3833000000211042206330844011
:101E0000A550C660E770088129914AA16BB18CC1C9
:101E1000ADD1CEE1EFF13112100273325222B55240
:101E20009442F772D662399318837BB35AA3BDD319
:101E30009CC3FFF3DEE36224433420040114E66410
:101E4000C774A44485546AA54BB528850995EEE569
:101E5000CFF5ACC58DD55336722611163006D77620
:101E6000F6669556B4465BB77AA719973887DFF7B9
:101E7000FEE79DD7BCC7C448E5588668A7784008E8
:101E8000611802282338CCC9EDD98EE9AFF9488909
:101E900069990AA92BB9F55AD44AB77A966A711A80
:101EA000500A333A122AFDDBDCCBBFFB9EEB799B59
:101EB000588B3BBB1AABA66C877CE44CC55C222CD0
:101EC000033C600C411CAEED8FFDECCDCDDD2AADA9
:101ED0000BBD688D499D977EB66ED55EF44E133E60
:101EE000322E511E700E9FFFBEEFDDDFFCCF1BBFF9
:101EF0003AAF599F788F8891A981CAB1EBA10CD1D3
:101F00002DC14EF16FE18010A100C230E3200450DA
:101F1000254046706760B9839893FBA3DAB33DC34D
:101F20001CD37FE35EF3B1029012F322D23235422A
:101F3000145277625672EAB5CBA5A89589856EF5DD
:101F40004FE52CD50DC5E234C324A014810466747A
:101F5000476424540544DBA7FAB79987B8975FE72D
:101F60007EF71DC73CD7D326F2369106B0165766CA
:101F70007676154634564CD96DC90EF92FE9C899B5
:101F8000E9898AB9ABA94458654806782768C0181A
:101F9000E1088238A3287DCB5CDB3FEB1EFBF98B8D
:101FA000D89BBBAB9ABB754A545A376A167AF10A6A
:101FB000D01AB32A923A2EFD0FED6CDD4DCDAABD9D
:101FC0008BADE89DC98D267C076C645C454CA23CBA
:101FD000832CE01CC10C1FEF3EFF5DCF7CDF9BAF6D
:101FE000BABFD98FF89F176E367E554E745E932E0A
:101FF000B23ED10EF01E7C3C3E3F2F2A225C0052A6
:1020000065636F766572696E67207072696E7400C1
:10201000506C6561736520776169740058595A2066
:1020200063616C6962726174696F6E20616C6C20AF
:1020300072696768742E20536B65772077696C6CC2
:1020400020626520636F72726563746564206175D8
:10205000746F6D61746963616C6C792E0058595AA4
:102060002063616C6962726174696F6E20616C6C6F
:102070002072696768742E20582F59206178657323
:102080002061726520736C696768746C7920736B6A
:10209000657765642E20476F6F64206A6F62210048
:1020A00058595A2063616C6962726174696F6E205D
:1020B0006F6B2E20582F59206178657320617265EF
:1020C0002070657270656E646963756C61722E2034
:1020D000436F6E67726174756C6174696F6E7321A2
:1020E0000058595A2063616C6962726174696F6E3D
:1020F000206661696C65642E205269676874206689
:10210000726F6E742063616C6962726174696F6E64
:1021100020706F696E74206E6F74207265616368E1
:1021200061626C652E0058595A2063616C69627255
:102130006174696F6E206661696C65642E204672F9
:102140006F6E742063616C6962726174696F6E2076
:10215000706F696E7473206E6F742072656163684E
:1021600061626C652E0058595A2063616C69627215
:102170006174696F6E206661696C65642E20506CB5
:102180006561736520636F6E73756C742074686528
:10219000206D616E75616C2E0058595A2063616C18
:1021A0006962726174696F6E20636F6D70726F6DBA
:1021B000697365642E2052696768742066726F6E59
:1021C000742063616C6962726174696F6E20706FF4
:1021D000696E74206E6F7420726561636861626CF1
:1021E000652E0058595A2063616C69627261746986
:1021F0006F6E20636F6D70726F6D697365642E20F2
:1022000046726F6E742063616C6962726174696F8B
:102210006E20706F696E7473206E6F7420726561CA
:10222000636861626C652E0058595A2063616C695D
:1022300062726174696F6E206661696C65642E20DC
:102240004265642063616C6962726174696F6E20BB
:10225000706F696E7420776173206E6F7420666F83
:10226000756E642E00506C6561736520706C6163DF
:102270006520737465656C207368656574206F6E86
:1022800020686561746265642E0044697374616ED0
:102290006365206265747765656E20746970206F70
:1022A0006620746865206E6F7A7A6C6520616E6452
:1022B0002074686520626564207375726661636569
:1022C00020686173206E6F74206265656E2073658F
:1022D00074207965742E20506C6561736520666F7B
:1022E0006C6C6F7720746865206D616E75616C2C05
:1022F000206368617074657220466972737420731C
:10230000746570732C2073656374696F6E20466901
:10231000727374206C617965722063616C6962729A
:102320006174696F6E2E00506C616365206120736B
:1023300068656574206F6620706170657220756EC7
:1023400064657220746865206E6F7A7A6C652064AB
:102350007572696E67207468652063616C6962726A
:102360006174696F6E206F662066697273742034C1
:1023700020706F696E74732E204966207468652022
:102380006E6F7A7A6C65206361746368657320741C
:1023900068652070617065722C20706F776572209F
:1023A0006F666620746865207072696E746572204D
:1023B000696D6D6564696174656C792E00506C653A
:1023C0006173652072656D6F766520737465656CE9
:1023D0002073686565742066726F6D20686561742E
:1023E0006265642E00497320737465656C207368A0
:1023F000656574206F6E20686561746265643F0076
:10240000536561726368696E672062656420636109
:102410006C6962726174696F6E20706F696E7400AE
:102420004D6561737572696E672072656665726568
:102430006E636520686569676874206F66206361F4
:102440006C6962726174696F6E20706F696E74007E
:10245000506C6561736520636C65616E207468659E
:10246000206E6F7A7A6C6520666F722063616C698A
:1024700062726174696F6E2E20436C69636B2077A2
:1024800068656E20646F6E652E004175746F2068FC
:102490006F6D65004D6561737572656420736B6562
:1024A00077733A2025662025660A004669747469A8
:1024B0006E67206661696C6564203D3E2063616CD7
:1024C0006962726174696F6E206661696C65642E01
:1024D0000A0043616C6962726174696F6E20737582
:1024E00063636573732E0A00416C6C203420636152
:1024F0006C6962726174696F6E20706F696E74735B
:1025000020666F756E642E0A00312F3400312F342F
:1025100000312F390078797A63616C5F6D65617382
:10252000737572655F656E7465720A0078797A6397
:10253000616C5F73706972616C382063783D2564EB
:102540002063793D2564207A303D256420647A3DFE
:102550002564207261646975733D25642061643D62
:1025600025640A0078797A63616C5F7365617263D0
:10257000685A206E6F207369676E616C0A20783D1F
:10258000256C6420793D256C64207A3D256C640AB5
:1025900000204F4E2D5349474E414C206174207806
:1025A0003D256420793D2564207A3D2564206164C1
:1025B0003D25640A0078797A63616C5F73656172A6
:1025C00063685A20783D256C6420793D256C642031
:1025D0007A3D256C640A0025640A005363616E200D
:1025E000636F756E74646F776E3A20000A00253051
:1025F000327800205B25662025665D206D6D207099
:1026000061747465726E2063656E7465720A002071
:102610005B25662025665D5B25665D206D6D20640B
:102620006976657267656E63650A000000F000F800
:1026300001FC03FE07FE07FE07FE07FC03F801F09E
:1026400000000000000000F000F801FC03FC03FCA7
:1026500003FC03F801F0000000000078797A636160
:102660006C5F6D656173737572655F6C65617665CE
:102670000A00203C20005741524E494E473A20461E
:10268000726F6E7420706F696E74206E6F7420723A
:102690006561636861626C652E205920636F6F729B
:1026A00064696E6174653A0000000040410000C03A
:1026B0004000005C430000C04000005C4300004656
:1026C00043000040410000464325642F3400497414
:1026D00065726174696F6E3A200043616C69627261
:1026E0006174696F6E206661696C6564212043685E
:1026F00065636B20746865206178657320616E6422
:102700002072756E20616761696E2E004375737467
:102710006F6D00536174696E200054657874757232
:1027200000536D6F6F74680047312059252D2E328C
:10273000662045252D2E336600473120582564201C
:1027400059252D2E32662045252D2E3366006673C1
:10275000656E736F725F636865636B706F696E74CB
:102760005F7072696E74006673656E736F72207647
:10277000302E3420696E206661756C742072616E33
:10278000676520342E362D3556202D20756E636FEB
:102790006E6E6563746564006673656E736F722038
:1027A000696E20666F7262696464656E2072616E24
:1027B000676520312E352D3356202D2063686563E3
:1027C0006B2073656E736F7200312E3000312E35C1
:1027D00000554E4B4E4F574E004C413130433A203E
:1027E0004C696E65617220416476616E6365206D2F
:1027F0006F64653A20004C413130433A2041646AAD
:10280000757374656420452D4A65726B3A2000002B
:102810000E1315110E00000004120912040000002E
:102820001C1F11111F00000006191803130C0004CF
:102830000E1F041C000000040A0A0A0A11110E00EF
:102840001F1511151F0000000103161C08000000D1
:1028500000110A04110A040C12120C0000000025D9
:1028600063252D31382E3138532563005B25735D88
:102870002563005B25535D2563002563252D3138D5
:102880002E31385300252E31305320002563252D5D
:1028900031382E3138732563002563252D2E3136CE
:1028A0005320002563252E3135533A257325336493
:1028B00000252D32302E3230530A00756E6B6E6F4C
:1028C000776E2073746174650020302E34206F722F
:1028D000206E657765720020302E33206F72206F76
:1028E0006C6465720024F4D43050C38E20C2A240C0
:1028F00017828B7011127A910D816CD90AA861E14F
:1029000008C7586607615143061E4B5D05C145A7C0
:10291000041A411104093D9803713931034036DB33
:102920000265339102D4305402802E1D02632CEED6
:1029300001752AC501B028A001102781018F2564E7
:10294000012B244B01E0223401AC211F018D200D0D
:1029500001801FFC00841EED00971DDF00B81CD213
:1029600000E61BC600201BBC00641AB200B219A806
:10297000000A19A0006A189900D117910040178B1E
:1029800000B516840031167E00B31579003A157330
:1029900000C7146F0058146A00EE136600881363B2
:1029A0000025135E00C7125B006C1257001512540D
:1029B00000C111510070114F0021114B00D6104978
:1029C000008D1047004610440002104200C00F4026
:1029D00000800F3E00420F3C00060F3B00CB0E383C
:1029E00000930E37005C0E3500270E3400F30D32D5
:1029F00000C10D3100900D3000600D2E00320D2D04
:102A000000050D2C00D90C2B00AE0C2900850C29DB
:102A1000005C0C2700350C27000E0C2600E80B2468
:102A200000C40B2400A00B23007D0B23005A0B21B4
:102A300000390B2100180B2000F80A1F00D90A1ECC
:102A400000BB0A1E009D0A1D00800A1D00630A1CAF
:102A500000470A1B002C0A1B00110A1A00F7091A6A
:102A600000DD091900C4091900AB09190092091702
:102A7000007B091800630917004C09160036091677
:102A800000200916000A091500F5081500E00814D1
:102A900000CC081400B8081400A40814009008130F
:102AA000007D0812006B0813005808120046081237
:102AB0000034081100230811001208110001081148
:102AC00000F0071000E0071000D0071000C007104A
:102AD00000B0070F00A107100091070E0083070F39
:102AE0000074070F0065070E0057070E0049070E18
:102AF000003B070D002E070E0020070D0013070DE9
:102B00000006070D00F9060C00ED060D00E0060CAE
:102B100000D4060C00C8060C00BC060C00B0060C65
:102B200000A4060B0099060C008D060B0082060B14
:102B30000077060B006C060B0061060A0057060BB7
:102B4000004C060A0042060A0038060A002E060A51
:102B50000024060A001A060A001006090007060AE1
:102B600000FD050900F4050900EB050900E205096F
:102B700000D9050900D0050900C7050900BE0509EF
:102B800000B5050800AD050800A50509009C05086D
:102B900000940508008C050800840508007C0508E1
:102BA00000740508006C050700650508005D050751
:102BB00000560508004E05070047050700400508B8
:102BC0000038050700310507002A0507002305071F
:102BD000001C050600160507000F0507000805067E
:102BE0000002050700FB040600F5040700EE0406DA
:102BF00000E8040600E2040700DB040600D5040632
:102C000000CF040600C9040600C3040600BD040684
:102C100000B7040600B1040500AC040600A60406D3
:102C200000A00405009B040600950405009004061E
:102C3000008A04050085040500800406007A040566
:102C40000075040500700405006B040500660405AA
:102C500000610405005C04050057040500520405EA
:102C6000004D04050048040500430405003E04042B
:102C7000003A04050035040500300404002C040566
:102C80000027040400230405001E0404001A0404A1
:102C90000016040500110404000D040400090405D5
:102CA000000404040000040400FC030400F803040E
:102CB00000F4030400F0030400EC030400E8030440
:102CC00000E4030400E0030400DC030400D8030470
:102CD00000D4030400D0030400CC030400C80303A1
:102CE00000C503030024F404D9201BC40C5C0E9817
:102CF00004C4095F0265077101F405F900FB04B320
:102D00000048048700C103690058035500030345C8
:102D100000BE023A008402310053022A0029022533
:102D20000004022000E4011C00C8011900AF0117D3
:102D3000009801140084011300710110006101105A
:102D40000051010E0043010D0036010B002B010B59
:102D50000020010B00150109000C01090003010806
:102D600000FB000800F3000800EB000700E4000689
:102D700000DE000600D8000600D2000600CC0005E8
:102D800000C7000500C2000500BD000400B9000432
:102D900000B5000400B1000400AD000400A9000467
:102DA00000A5000300A20003009F0004009B000395
:102DB00000980003009500020093000300900003B8
:102DC000008D0002008B00030088000200860002D4
:102DD0000084000300810002007F0002007D0002E9
:102DE000007B0002007900020077000100760002FB
:102DF000007400020072000100710002006F000206
:102E0000006D0001006C0002006A00010069000210
:102E10000067000100660001006500010064000217
:102E2000006200010061000100600001005F00021B
:102E3000005D0001005C0001005B0001005A000120
:102E40000059000100580001005700010056000120
:102E50000055000100540001005300000053000120
:102E6000005200010051000100500001004F00011C
:102E7000004E0000004E0001004D0001004C00011A
:102E8000004B0000004B0001004A00010049000116
:102E90000048000000480001004700010046000013
:102EA000004600010045000000450001004400010B
:102EB0000043000000430001004200000042000106
:102EC000004100000041000100400001003F0000FF
:102ED000003F0001003E0000003E0001003D0000F8
:102EE000003D0001003C0000003C0000003C0001EF
:102EF000003B0000003B0001003A0000003A0001E6
:102F000000390000003900010038000000380000DE
:102F100000380001003700000037000100360000D3
:102F200000360000003600010035000000350000CA
:102F300000350001003400000034000000340001BE
:102F400000330000003300000033000100320000B5
:102F500000320000003200010031000000310000AA
:102F6000003100010030000000300000003000019E
:102F7000002F0000002F0000002F0000002F000194
:102F8000002E0000002E0000002E0001002D000089
:102F9000002D0000002D0000002D0001002C00007D
:102FA000002C0000002C0000002C0001002B000071
:102FB000002B0000002B0000002B0001002A000065
:102FC000002A0000002A0000002A00010029000059
:102FD000002900000029000000290000002900014C
:102FE0000028000000280000002800000028000041
:102FF0000028000100270000002700000027000033
:103000000027000000270001002600000026000025
:103010000026000000260000002600010025000018
:10302000002500000025000000250000002500000C
:1030300000250001002400000024000000240000FE
:1030400000240000002400010023000000230000F1
:1030500000230000002300000023000000230000E4
:1030600000230001002200000022000000220000D6
:1030700000220000002200000022000100210000C8
:1030800000210000002100000021000000210000BC
:1030900000210000002100010020000000200000AD
:1030A00000200000002000000020000000200000A0
:1030B0000020000000200001001F0000001F000091
:1030C000001F0000001F0000001F0000001F000084
:1030D000001F0001001E0000001E0000001E000076
:1030E000001E000000504944204175746F74756ED5
:1030F000652066696E697368656421205075742067
:10310000746865206C617374204B702C204B6920AF
:10311000616E64204B6420636F6E7374616E7473B0
:103120002066726F6D2061626F766520696E746FC4
:1031300020436F6E66696775726174696F6E2E6881
:1031400000504944204175746F74756E6520666146
:10315000696C6564212074696D656F757400204029
:103160003A00543A00423A00504944204175746F85
:1031700074756E65206661696C6564212054656DA7
:10318000706572617475726520746F6F206869670D
:103190006800204B643A2000204B693A2000204B05
:1031A000703A200020436C61737369632050494476
:1031B00020002054753A2000204B753A2000206DE5
:1031C00061783A2000206D696E3A200020643A2030
:1031D0000020626961733A2000457872656D652050
:1031E0007370616E206F6620746865205A20766166
:1031F0006C756573210025642F39006F6B0A0073AD
:10320000746172740A004D4D5532206669726D7793
:103210006172652076657273696F6E20696E766182
:103220006C69642E205265717569726564207665DB
:103230007273696F6E3A206275696C64206E756D89
:10324000626572202564206F722068696768657204
:103250002E004D4D55203D3E20276F6B270A004D17
:103260004D55203D3E20276F6B270A002564004DF9
:103270004D55203D3E20276F6B272C2072657375BE
:103280006D65207072696E740A004D4D552072652F
:1032900074727920617474656D7074206E722E2062
:1032A00025640A004D4D55203D3E20276F6B270AAF
:1032B00000410A004D4D55203C3D202741270A0082
:1032C0004D363030004D363030204155544F0025BA
:1032D00068687500410A004D4D55203C3D2027414E
:1032E000270A0050300A004D25640A004D4D552034
:1032F0003C3D20274D2564270A0057300A004D4DDC
:1033000055203C3D20275730270A0053330A004DF3
:103310004D55203C3D20275333270A0052300A00E8
:103320004D4D55203C3D20275230270A004B256447
:103330000A004D4D55203C3D20274B2564270A00AF
:103340004525640A004D4D55203C3D202745256408
:10335000270A0055300A004D4D55203C3D20275589
:1033600030270A0043300A004D4D55203C3D2027B0
:103370004330270A004C25640A004D4D55203C3D42
:1033800020274C2564270A005425640A004D4D551A
:10339000203C3D2027542564270A004D4D55202D03
:1033A00020454E41424C4544002568687500503028
:1033B0000A004D310A004D4D55203C3D20274D312E
:1033C000270050300A004D4D552076657273696FA5
:1033D0006E2076616C6964004D4D55203D3E20277E
:1033E00025646F6B270A0025750053320A004D4D86
:1033F00055203C3D2027533227004D4D55203D3E62
:10340000202725646F6B270A002575004D4D552038
:103410006E6F7420726573706F6E64696E67202DB5
:103420002044495341424C45440053310A004D4D1C
:1034300055203C3D2027533127004D4D55203D3E22
:103440002027737461727427006572726F723A205C
:10345000756E6B6E6F776E206D6F7665006E6F2088
:103460006D6F766500542D636F646500756E6C6FCB
:103470006164006C6F6164006D6D755F6765745F9A
:10348000726573706F6E7365202D20626567696E5B
:10349000206D6F76653A20006D6D755F6765745FAE
:1034A000726573706F6E736528292072657475720A
:1034B0006E696E673A2025640A00556E6C6F616410
:1034C000696E672066696E697368656420320055AD
:1034D0006E6C6F6164203200556E6C6F6164696E52
:1034E000672066696E6973686564203100556E6C8B
:1034F0006F61642031004D4D552073746172747397
:1035000020726573706F6E64696E67004D4D552053
:103510006E6F7420726573706F6E64696E670042BF
:103520006564206C6576656C696E67206661696CA0
:1035300065642E2053656E736F72206469646E2714
:103540007420747269676765722E204465627269BF
:1035500073206F6E206E6F7A7A6C653F20576169B9
:1035600074696E6720666F722072657365742E00D1
:10357000506C65617365207570646174652066695F
:10358000726D7761726520696E20796F7572204D5A
:103590004D55322E2057616974696E6720666F72CF
:1035A0002072657365742E004D4D55204F4B2E20B3
:1035B000526573756D696E672E2E2E004D4D552028
:1035C0004F4B2E20526573756D696E6720706F7357
:1035D0006974696F6E2E2E2E004D4D55204F4B2E67
:1035E00020526573756D696E672074656D706572C4
:1035F00061747572652E2E2E004669782074686598
:1036000020697373756520616E64207468656E202F
:10361000707265737320627574746F6E206F6E20A4
:103620004D4D5520756E69742E0050726573732070
:10363000746865206B6E6F6220746F20726573759D
:103640006D65206E6F7A7A6C652074656D70657239
:1036500061747572652E004D4D55206E65656473FD
:10366000207573657220617474656E74696F6E2E57
:1036700000312F390025632533642F25642563002D
:1036800047312058352E302045342E3020463130F9
:1036900030302E30004731205A302E323020463123
:1036A0003030302E30004731205835352E3020450F
:1036B00032352046313430302E3000473120592DFC
:1036C000322E302046313030302E300047312058F5
:1036D0003234302E30204532352E302020463232E2
:1036E00030302E30004739322045302E30004731FF
:1036F000205A302E332046313030302E30004731C2
:10370000205835352E302045382E30204632303086
:10371000302E300047312058352E30204533322EA0
:10372000302046313830302E300047312058353582
:103730002E30204533322E302046313037332E3074
:10374000004731204634303030004D323034205381
:1037500031303030004731205A3520463732303052
:103760002E30303000473120452D312E353030306D
:10377000302046323130302E3030303030004D384D
:103780003300473930004732310047393220453065
:103790002E300047312058353020593535204533FB
:1037A0002E363237373300473120583230302059E7
:1037B00035352045302E34393338360047312058DE
:1037C000323030205937352045332E3632373733B3
:1037D00000473120583530205937352045302E34B8
:1037E00039333836004731205835302059393520A3
:1037F00045332E3632373733004731205832303098
:10380000205939352045302E343933383600473188
:10381000205832303020593131352045332E363260
:103820003737330047312058353020593131352072
:1038300045302E3439333836004731205835302062
:10384000593133352045332E36323737330047313F
:10385000205832303020593133352045302E36361D
:103860003137340047312058323030205931353526
:103870002045322E36323737330047312058313029
:103880003020593135352045320047312058373501
:1038900020593135352045322E350047312046310B
:1038A000303830004731205A302E313530204637FD
:1038B0003230302E303030004731205835302059EA
:1038C000313535004739322045302E300047323807
:1038D000004D313039004D313930004D3130370035
:1038E000726573756C742076616C75653A20256419
:1038F0000A0020693D25326420636E743D253264E0
:103900002076616C3D2532640A00636C75737465C2
:1039100072733A0020693D25326420737465703DEE
:103920002532640A00736F727465642073616D7070
:103930006C65733A00252D3773003A200025642FFB
:103940003600252D32305300203A2000252D32300C
:103950007300542564004731205A302E34204631FC
:103960003030302E3000473120592D332E30204654
:10397000313030302E30004D38330047312058314F
:1039800030302E30204531322E3520463130303027
:103990002E30004731205836302E302045392E3019
:1039A0002046313030302E30002A371437FE36EEC4
:1039B00036E536CC36BB36A636953680368A37861F
:1039C0003782377E37653755374A37413747312099
:1039D000583530205933352045252D2E336600B813
:1039E00038A4389B388A387A3864384E38393824C5
:1039F000380E38F937E537D137BC37A73793374911
:103A00006E76616C6964205049442063616C2E209D
:103A1000726573756C74732E204E6F742073746F9F
:103A200072656420746F20454550524F4D2E004DF5
:103A3000353030004731205A31352046313530306D
:103A4000004739310047312058353020593139305D
:103A500020453020463730303000473930004D386F
:103A600034004D3730322043004731205831302068
:103A700059313830204634303030004731205A3107
:103A8000302046313330302E303030004D3134303C
:103A9000205330004D313034205330004731204521
:103AA0002D302E30373530302046323130302E3008
:103AB00030303030004D3130370025530A20252D6D
:103AC00031362E313653252D33640A20252D3136DB
:103AD0002E313653252D3364004D31313720466960
:103AE000727374206C617965722063616C2E005270
:103AF0006573756D696E67207072696E74005049E8
:103B00004E44412048656174696E670043616C6989
:103B100062726174696F6E20646F6E650043616CE0
:103B20006962726174696E67205A0042656420643C
:103B30006F6E65004265642048656174696E670058
:103B400048656174696E6720646F6E652E00486514
:103B50006174696E67005049442063616C2E206671
:103B6000696E6973686564005049442063616C2E16
:103B7000005072696E7420706175736564005072D4
:103B8000696E742046414E004E6F7A7A6C6520460D
:103B9000414E0025632533642F25642563005A2593
:103BA000362E32662563005A2020202D2D2D200030
:103BB00025632533642525002D2D2D0025336868C8
:103BC00064002533532533732525005553420020C7
:103BD000202000205344002025753E257500203FFD
:103BE0003E257500204625750020463F00204652A0
:103BF0004D200025632D2D3A2D2D202000256325F5
:103C00003375682025632563002563253032753AB6
:103C10002530327525632563002F2F206163746979
:103C20006F6E3A70617573650025732025346420CA
:103C300052504D0A2573202534642052504D0A00FD
:103C40005072656865617420746865206E6F7A7A59
:103C50006C6521004552524F523A0046696C616DC5
:103C6000656E7420657874727564696E67202620AD
:103C70007769746820636F727265637420636F6C18
:103C80006F723F004175746F6C6F6164696E67207D
:103C900066696C616D656E74206973206163746917
:103CA00076652C206A757374207072657373207446
:103CB0006865206B6E6F6220616E6420696E73654B
:103CC00072742066696C616D656E742E2E2E0050C4
:103CD00072696E742074696D650046696C616D650A
:103CE0006E74207573656400546F74616C2070721B
:103CF000696E742074696D6500546F74616C206620
:103D0000696C616D656E74005269676874004C651A
:103D1000667400592064697374616E63652066720D
:103D20006F6D206D696E0053657665726520736BEB
:103D3000657700536C6967687420736B6577004D15
:103D40006561737572656420736B6577005B303BEA
:103D5000305D20706F696E74206F666673657400E5
:103D600041646A757374696E67205A3A00526561DE
:103D7000722073696465205B756D5D0046726F6EBD
:103D80007420736964655B756D5D00526967687462
:103D900020736964655B756D5D004C6566742073A6
:103DA000696465205B756D5D005365742074656D95
:103DB00070657261747572653A0054656D706572F4
:103DC00061747572652063616C6962726174696F98
:103DD0006E206661696C65640054656D7065726122
:103DE000747572652063616C6962726174696F6E6B
:103DF0002069732066696E697368656420616E640A
:103E0000206163746976652E2054656D702E206381
:103E1000616C6962726174696F6E2063616E2062A9
:103E2000652064697361626C656420696E206D65EC
:103E30006E752053657474696E67732D3E54656D9D
:103E4000702E2063616C2E0046696C2E2073656EA7
:103E5000736F720025533A0A2531382E32666D2071
:103E60000A25533A0A2531306C64682025303268BF
:103E700068646D20253032686864730025533A0AFF
:103E80002531382E32666D200A25533A0A25313005
:103E90006C6464202530326868646820253032689C
:103EA00068646D0025362E32666D6D0025530A2537
:103EB000530A25533A0A25533A0025332E32660118
:103EC00000252D31342E3134533A0A25530A252D3D
:103ED00031342E3134533A25332E3266010A252DE2
:103EE00031342E3134533A25332E326601002020EE
:103EF00030002020310046494E44410050494E4494
:103F00004100252D31322E313253252B382E31668A
:103F10000045787472756465723A006D6D005900E1
:103F20005800583A00593A005A3A002563252D3175
:103F3000332E313353252B352E33660054656D7087
:103F4000657261747572652063616C696272617417
:103F5000696F6E206661696C65642E20436F6E74B4
:103F6000696E75652077697468207072657373690E
:103F70006E6720746865206B6E6F622E0054656DED
:103F800070657261747572652063616C69627261DB
:103F900074696F6E20646F6E652E20436F6E746956
:103FA0006E75652077697468207072657373696EC9
:103FB0006720746865206B6E6F622E007B5B4552D4
:103FC000523A004D363030006673656E736F725F23
:103FD000757064617465202D204D36303000495273
:103FE0002073656E736F72206E6F742072657370CC
:103FF0006F6E64696E672028256429210A002057A6
:104000003A0020453A00543A005A206C69766520FF
:1040100061646A757374206F7574206F66207261B5
:104020006E67652E2053657474696E6720746F2007
:10403000302E20436C69636B20746F20636F6E7445
:10404000696E75652E005A206C6976652061646A18
:10405000757374206F7574206F662072616E67656A
:104060002E2053657474696E6720746F20300020B1
:10407000423A0020453A00543A00494E5434004830
:10408000656174696E672064697361626C65642040
:104090006279207361666574792074696D65722E2A
:1040A0000046532076302E33206F72206F6C64658B
:1040B000720046532076302E34206F72206E657762
:1040C000657200496E61637469766974792053681A
:1040D0007574646F776E004B494C4C45442E20003C
:1040E0005072696E7465722068616C7465642E200C
:1040F0006B696C6C28292063616C6C656421004BD2
:10410000494C4C3A2025640A004D32323120496E28
:1041100076616C69642065787472756465722000DC
:104120004D32313820496E76616C6964206578744F
:10413000727564657220004D31303920496E7661A8
:104140006C696420657874727564657220004D3105
:10415000303520496E76616C6964206578747275BB
:1041600064657220004D31303420496E76616C698F
:10417000642065787472756465722000504F5745ED
:10418000522050414E4943204445544543544544F0
:104190000055564C4F202D20656E642025640A0082
:1041A00055564C4F5F54494E59202D20656E642062
:1041B00025640A00300B0000F00C3200900E640001
:1041C000001096006011C800B012FA00E0132C0134
:1041D00000155E01001690010017C201F017F401EE
:1041E00045787472756465722066616E20737065BF
:1041F0006564206973206C6F776572207468616EE6
:10420000206578706563746564005072696E74200F
:1042100066616E207370656564206973206C6F77CA
:104220006572207468616E2065787065637465647A
:10423000004D494E54454D5020414D42004D41588E
:1042400054454D50004D415854454D502042454431
:10425000004D415854454D5020414D4200202D20E5
:10426000496E76616C6964206578747275646572F4
:10427000206E756D62657220210070012C01900125
:104280002701B0012201C0011D01F0011801100237
:10429000130130020E016002090190020401C00204
:1042A000FF000003FA004003F5008003F000D00394
:1042B000EB002004E6007004E100E004DC004005AF
:1042C000D700C005D2004006CD00D006C800800748
:1042D000C3003008BE00F008B900C009B400B00A3D
:1042E000AF00B00BAA00D00CA500000EA000500F2C
:1042F0009B00C01096005012910000148C00C01555
:104300008700B0178200B0197D00D01B7800001E16
:10431000730040206E0090226900F0246400402762
:104320005F0090295A00E02B5500102E50002030DD
:104330004B0010324600E033410090353C0010370E
:10434000370070383200A0392D00B03A2800A03B69
:104350002300603C1E00103D1900903D1400103EEB
:104360000F00703E0A00C03E0500003F00009013A1
:104370007D00B0157800F0177300601A6E00F01C15
:104380006900A01F640050225F0020255A00E0272A
:104390005500902A5000202D4B00A02F4600F031F0
:1043A000410010343C00F0353700A037320020398E
:1043B0002D00603A2800703B2300603C1E00203D29
:1043C0001900C03D1400403E0F00A03E0A00F03E20
:1043D0000500403F0000703FFBFF903FF6FFB03FFD
:1043E000F1FFC03FECFFD03FE7FFE03FE2FFF03FCF
:1043F000DDFFF03FD8FF20484F54454E442054483D
:1044000045524D414C2052554E415741590020488C
:1044100045415442454420544845524D414C205258
:10442000554E4157415900544845524D414C205238
:10443000554E415741590042454420544845524D3C
:10444000414C2052554E4157415900205448455245
:104450004D414C2052554E41574159202820505231
:10446000454845415420484F54454E442900205466
:104470004845524D414C2052554E415741592028F4
:1044800020505245484541542048454154424544F6
:10449000290050524548454154204552524F520040
:1044A0004245442050524548454154204552524FC0
:1044B00052004572723A2000207472696767657213
:1044C000656421004865617465727320737769744F
:1044D00063686564206F66662E20003A2000506C89
:1044E000656173652072657374617274004E6F202C
:1044F0003078464620726563656976656400536569
:104500006E64696E6720307846460020222573224B
:10451000002025236C78004449525F4558495400D7
:104520004449525F454E5445523A20257320222576
:1045300073220A0046696C652073656C6563746557
:1045400064002053697A653A200046696C65206FE3
:1045500070656E65643A20004E6F772066726573F1
:10456000682066696C653A20004E6F7720646F6939
:104570006E672066696C653A20002220706F7300B8
:104580002220706172656E743A2200535542524F78
:104590005554494E452043414C4C20746172676527
:1045A000743A2200747279696E6720746F206361B7
:1045B0006C6C207375622D67636F64652066696C2F
:1045C0006573207769746820746F6F206D616E79F0
:1045D000206C6576656C732E0046696C616D656E46
:1045E000742073656E736F7220626F6172642063F2
:1045F00068616E67652064657465637465643A20FC
:104600007265766973696F6E25530A00534420639F
:10461000617264206F6B006F70656E526F6F7420F3
:104620006661696C656400766F6C756D652E696E88
:104630006974206661696C656400534420696E6921
:1046400074206661696C006F70656E206661696CCC
:1046500065642C2046696C653A200043616E6E6F7C
:104660007420656E746572207375626469723A2095
:1046700000536F7274696E672066696C65730053CE
:104680006F6D652066696C65732077696C6C206E50
:104690006F7420626520736F727465642E204D61A3
:1046A000782E204E6F2E206F662066696C65732011
:1046B000696E203120666F6C64657220666F7220AF
:1046C000736F7274696E67206973203130302E0009
:1046D0005553415254322072782046756C6C21211A
:1046E000210053657474696E67732053746F72652B
:1046F000640053746F7265642073657474696E67C7
:1047000073207265747269657665640048617264CD
:10471000636F6465642044656661756C74205365DD
:104720007474696E6773204C6F61646564005632FF
:1047300000000000C8420000C8420000C84300005A
:104740008C43000048430000484300004041000003
:10475000F042E8030000E8030000C80000008813EE
:10476000000000409C4400409C4400000000000009
:104770000000204E00000000204100002041CDCC70
:10478000CC3E00009040000000000000000000004F
:104790000000CDCCCC3E3D0A8141FF08433EB0999C
:1047A000AB438F42FC42E65A343F4C62B0450000B6
:1047B0000000004040000034420000000000000003
:1047C0000000000041000000E03F0000C84200007F
:1047D000C842000040410000F042C0030000C00396
:1047E0000000C800000088130000101010200040D6
:1047F0009C44627573793A207061757365642066B4
:104800006F7220696E70757400627573793A2070EA
:10481000617573656420666F7220757365720062DE
:104820007573793A2070726F63657373696E670090
:1048300000007F430080544300005243000000000A
:10484000000080C09A99193E00000000000080C05E
:104850009A99193E0000000000110A046265746113
:1048600000616C706861006465760003000A0000F6
:1048700000811150525553413344465700000021E6
:1048800000240027002A002D003000330001010021
:1048900000040107010A0100002200250028002B66
:1048A000002E003100340002010000050108010B58
:1048B00001000020002300260029002C002F0032D8
:1048C00000000100000301060109010505050507B7
:1048D0000508080808020202020A0A08080404047B
:1048E00004010101010101010103030303030303A7
:1048F00003040707070C0C0C0C0C0C0C0C02020236
:104900000206060606060606060B0B0B0B0B0B0B28
:104910000B07070A0A0A0A0A0A050505040404081F
:1049200008010210202008081020401020408002BA
:1049300001020108040201010204081020408080E5
:104940004020100804020180040201804020100869
:104950000402010804020101020408102040800141
:104960000204081020408010080408801020400431
:104970004080102040048000000A0B02090C0D0E3C
:104980000807030401000000000000000000000010
:104990000000000000000000000000000000000017
:1049A00000000012111000000000000000000000D4
:1049B00000000000000000000000000000000000F7
:1049C0000000000000000000000000000053442030
:1049D000636172642072656C656173656400452D66
:1049E000636F6F6C206D6F646500414C5446414E9F
:1049F000206465742E00436172642072656D6F7669
:104A00006564004F6E004F6666004261636B005044
:104A100072696E746572206E6F7A7A6C6520646953
:104A2000616D65746572206469666665727320667F
:104A3000726F6D2074686520472D636F64652E204A
:104A4000506C6561736520636865636B207468658D
:104A50002076616C756520696E2073657474696E6B
:104A600067732E205072696E742063616E63656C8B
:104A70006C65642E005072696E746572206E6F7A78
:104A80007A6C65206469616D65746572206469661D
:104A9000666572732066726F6D2074686520472D9D
:104AA000636F64652E20436F6E74696E75653F0099
:104AB00022206661696C65643A204275666665729B
:104AC0002066756C6C21002200256920686F757264
:104AD00073202569206D696E757465730054494DA6
:104AE000454F55543A004D3131300046756C6C20BD
:104AF00052582042756666657200656E717565690B
:104B00006E67202200446F6E65207072696E746952
:104B10006E672066696C65004D3131322063616CCF
:104B20006C65642E20456D657267656E63792053F0
:104B3000746F702E005072696E7465722073746F9A
:104B4000707065642064756520746F206572726F83
:104B500072732E2046697820746865206572726FC2
:104B60007220616E6420757365204D393939207467
:104B70006F20726573746172742E202854656D7095
:104B800065726174757265206973207265736574EE
:104B90002E205365742069742061667465722072DA
:104BA000657374617274696E6729004E6F204C6979
:104BB0006E65204E756D626572207769746820633A
:104BC0006865636B73756D2C204C617374204C6940
:104BD0006E653A20004E6F20436865636B73756D98
:104BE0002077697468206C696E65206E756D6265EA
:104BF000722C204C617374204C696E653A200063FE
:104C00006865636B73756D206D69736D617463683E
:104C10002C204C617374204C696E653A20004C69FD
:104C20006E65204E756D626572206973206E6F74BB
:104C3000204C617374204C696E65204E756D626501
:104C4000722B312C204C617374204C696E653A20B4
:104C50000053544F505045442E0046696C616D65B9
:104C60006E74206F7574206F662072616E676520A8
:104C70002564200A000000803F55558541000080D2
:104C80003F0000C84100000040555505420000C0EB
:104C90003F0000484200002040555585420000700A
:104CA000C1ABAAA642000060C10000A0410000C044
:104CB000C00000204100002041ABAA3A4100002082
:104CC000C15555D540000048C2555505424D3730B5
:104CD00031204534004D373031204533004D3730D9
:104CE00031204532004D373031204531004D3730CD
:104CF000312045300046696C616D656E74206E72BE
:104D0000206F7574206F662072616E6765210020C8
:104D10006661696C65642E00207375636365656404
:104D200065642E004D4D552063616E5F6C6F61644C
:104D30003A004164646974696F6E616C206C6F61E4
:104D40006420617474656D7074206E722E20256409
:104D50000A00773235783230636C5F63666D0A0023
:104D6000773235783230636C5F656E7465720A0035
:104D700073746172740A0043757474696E67206697
:104D8000696C616D656E7400506C6561736520724D
:104D9000656D6F76652066696C616D656E74206106
:104DA0006E64207468656E20707265737320746819
:104DB00065206B6E6F622E00456A656374696E676D
:104DC0002066696C616D656E74004D4D55206C6F89
:104DD0006164206661696C656400332E31302E3069
:104DE000005D5B4657523A005D5B54494D3A005DA9
:104DF0005B464E4D3A005D5B46454D3A005D5B506B
:104E000043443A005B5446553A007B5B50524E3A5D
:104E100039395D007B5B50524E3A355D007B5B500B
:104E2000524E3A305D007B5B50524E3A395D007B0A
:104E30005B50524E3A385D007B5B5245533A305DD1
:104E40005B46494C3A007B5B5245533A315D5B46C9
:104E5000494C3A005B50524E3A005B50464E3A3055
:104E60005D005B4449413A005D5B4154423A005D5C
:104E70005B4154303A005D5B5354423A005B5354FB
:104E8000303A00473830004D3435004D3435205A23
:104E900000473736004578747275646572004D6F4F
:104EA0007665205A004D6F76652059004D6F766506
:104EB0002058004372617368206465746563746987
:104EC0006F6E2063616E0A6265207475726E656430
:104ED000206F6E206F6E6C7920696E0A4E6F726D56
:104EE000616C206D6F6465005741524E494E473AE0
:104EF0000A437261736820646574656374696F6ED8
:104F00000A64697361626C656420696E0A53746532
:104F1000616C7468206D6F6465004175746F6C6FAF
:104F20006164696E672066696C616D656E7420618D
:104F30007661696C61626C65206F6E6C7920776850
:104F4000656E2066696C616D656E742073656E7345
:104F50006F72206973207475726E6564206F6E2E97
:104F60002E2E004552524F523A2046696C616D65B3
:104F70006E742073656E736F72206973206E6F7428
:104F800020726573706F6E64696E672C20706C653B
:104F900061736520636865636B20636F6E6E656324
:104FA00074696F6E2E004D6F6465206368616E6773
:104FB0006520696E2070726F67726573732E2E2E76
:104FC0000043616C69627261746500536865657461
:104FD00020252E37730A5A206F66667365743A204F
:104FE000252B312E3366206D6D0A2563436F6E7459
:104FF000696E75650A256353746172742066726FF9
:105000006D207A65726F0020746F6F206C6F6E6711
:1050100020657874727573696F6E2070726576653D
:105020006E7465640020636F6C64206578747275BB
:1050300073696F6E2070726576656E746564004D7D
:10504000494E54454D50004D494E54454D50204217
:10505000454400452D6D6F746F72206375727265E3
:105060006E74207363616C696E6720656E61626C3B
:10507000656400746D63323133305F686F6D655FF6
:10508000656E74657228617865735F6D61736B3DE1
:10509000307825303278290A00746D63323133302C
:1050A0005F686F6D655F6578697420746D63323118
:1050B00033305F73675F686F6D696E675F617865D6
:1050C000735F6D61736B3D3078253032780A005420
:1050D0004D4320445249564552204F56455254455F
:1050E0004D50004578706572696D656E74616C0035
:1050F0004673656E736F7220446574656374696F7F
:105100006E0044697361626C65206661726D206D2A
:105110006F6465004D3834004D3434004732382018
:105120005700200A200A200047393900446973617A
:10513000626C65206661726D206D6F64653F00432F
:105140006865636B73004E6F7A7A6C6520642E001D
:105150004E6F6E6500416C706861626574005469E1
:105160006D6500536F727400534420636172640074
:1051700052506920706F72740054656D702E2063F8
:10518000616C2E004C696E2E20636F7272656374C1
:10519000696F6E00485720536574757000462E2065
:1051A0006175746F6C6F61640044697361626C65F2
:1051B000207374657070657273004D6F7665206141
:1051C0007869730054656D706572617475726500FD
:1051D00054656D702E2063616C6962726174696FD1
:1051E0006E0052657365742058595A2063616C696A
:1051F00062722E005049442063616C69627261746E
:10520000696F6E00426564206C6576656C20636F23
:105210007272656374004D65736820426564204C4A
:105220006576656C696E670043616C696272617472
:1052300065205A0043616C69627261746520585937
:105240005A0053656C66746573740042656C742013
:10525000746573740057697A617264004C6F61649D
:1052600020616C6C00506C656173652070756C6CAE
:10527000206F75742066696C616D656E7420696D50
:105280006D6564696174656C7900556E6C6F6164FD
:10529000696E672066696C616D656E7400466C614D
:1052A0007368416972004D4D5520706F77657220AB
:1052B0006661696C73004D4D55206C6F61642066AA
:1052C00061696C73004D4D55206661696C730054C3
:1052D0006F74616C206661696C75726573004372EE
:1052E0006173680046696C2E2072756E6F757473F9
:1052F00000506F776572206661696C757265730026
:105300004C617374207072696E74206661696C758B
:1053100072657300546F74616C004C61737420701B
:1053200072696E7400416D6269656E7400566F6CCF
:1053300074616765730054656D7065726174757230
:1053400065730042656C74207374617475730053E7
:10535000656E736F7220696E666F00457874727542
:1053600064657220696E666F0058595A2063616CDB
:105370002E2064657461696C7300756E6B6E6F7757
:105380006E004D4D553220636F6E6E6563746564BB
:1053900000446174653A00746F20756E6C6F6164CF
:1053A0002066696C616D656E7400746F206C6F614E
:1053B000642066696C616D656E740050726573730C
:1053C00020746865206B6E6F62005072656865615D
:1053D00074696E6720746F2063757400507265681D
:1053E000656174696E6720746F20656A6563740017
:1053F00050726568656174696E6720746F20756EA0
:105400006C6F61640050726568656174696E6720D5
:10541000746F206C6F616400436F6F6C646F776EA4
:105420000025530A20252D31362E313653252D33B4
:10543000640A20252D31362E313653252D33640A4A
:1054400020252D31362E313653252D33640025533A
:105450000A20252D31362E313653252D33640A206E
:10546000252D31362E313653252D33640A20252D36
:10547000372E37535820252D336420205920252DD1
:1054800033640020257325336401200A000A204973
:1054900052203A2020202020202025332E3166560D
:1054A00000205057523A20202020202025342E3131
:1054B00066560A204245443A2020202020202534E8
:1054C0002E3166560025530A20582025640A20599B
:1054D0002025640025752E25752E25752E25750031
:1054E00025730020005072696E7465722049502047
:1054F000416464723A002573002000466C61736851
:1055000041697220495020416464723A004D4D5502
:1055100032202020202020204E2F410025642E25DF
:10552000642E25642D2564002046573A0046696C98
:105530002E2073656E736F7220762E3A004A756C5A
:1055400020313320323032310045334476366675AF
:105550006C6C0045494E53795F31306100315F37E3
:10556000356D6D5F4D4B33002D2D2D2D2D2D2D2D9A
:105570002D2D2D2D00207265706F20556E6B6E6F76
:10558000776E0020332E31302E302D3434383100F8
:105590004669726D776172653A004D373032004D61
:1055A000373031004D373032004D37303100464C06
:1055B0004558202D20203234302F353000505020D7
:1055C00020202D20203235342F31303000484950F2
:1055D00053202D20203232302F31303000414253C1
:1055E00020202D20203235352F31303000505642CA
:1055F00020202D20203231352F37350050432020F8
:10560000202D20203237352F3131300041534120B9
:10561000202D20203236302F313035005045542097
:10562000202D20203233302F383500504C4120209F
:105630002D20203231352F3630006E6F7A7A6C652E
:10564000202D20203235302F30006661726D2020F1
:10565000202D20203235302F383000686F77746F5E
:105660002E707275736133642E636F6D00666F7296
:10567000756D2E707275736133642E636F6D00707B
:105680007275736133642E636F6D0078797A63612C
:105690006C5F73706972616C322063783D256420A1
:1056A00063793D2564207A303D256420647A3D2568
:1056B00064207261646975733D25642061643D25D1
:1056C000640A005061747465726E2063656E74655F
:1056D00072205B25662025665D2C206D61746368F1
:1056E00020256625250A00205B25662C2025665D81
:1056F0005B25665D2066696E616C20636972636C10
:10570000650A00746D63323133305F676F746F5FA9
:105710007374657020256420256420256420256429
:10572000200A004572723A205052494E5420464198
:105730004E204552524F52004572723A20455854FD
:10574000522E2046414E204552524F52002F2F20BC
:10575000616374696F6E3A706175736564002F2FB1
:1057600020616374696F6E3A726573756D6564006C
:105770002F2F20616374696F6E3A726573756D6562
:105780000052657365740052656E616D650046690F
:10579000727374206C617965722063616C2E0053A2
:1057A000656C65637400537465656C20736865652A
:1057B000747300537570706F7274004661696C2069
:1057C0007374617473204D4D55004661696C20738C
:1057D00074617473005374617469737469637300E2
:1057E00043616C6962726174696F6E004175746FB8
:1057F0004C6F61642066696C616D656E7400437501
:10580000742066696C616D656E7400456A656374C9
:105810002066696C616D656E7400556E6C6F6164B5
:105820002066696C616D656E74004C6F61642074F4
:105830006F206E6F7A7A6C65004C6F6164206669C8
:105840006C616D656E74004E6F205344206361720D
:1058500064005072696E742066726F6D205344004C
:10586000526573756D65207072696E740050617554
:105870007365207072696E7400507265686561743A
:105880000054756E65004C6976652061646A7573B5
:1058900074205A00496E666F2073637265656E00EE
:1058A00046696E697368696E67206D6F76656D65B0
:1058B0006E7473004272696768746E657373004139
:1058C00073736973740053696C656E74004F6E6313
:1058D00065004C6F756400536F756E64004D4D55D7
:1058E000204D6F6465004372617368206465742E97
:1058F00000537465616C7468004E6F726D616C006A
:1059000046616E7320636865636B005061757365F3
:1059100000436F6E742E00465320416374696F6EAE
:105920000046696C2E2073656E736F720043686168
:105930006E67652066696C616D656E7400466C6F9C
:1059400077005370656564004E2F41004D61676EAE
:1059500065747320636F6D702E005A2D70726F62C4
:1059600065206E722E004D657368004D3630300034
:1059700054696D656F757400427269676874004D93
:105980006F6465004175746F0044696D004C657605
:10599000656C2044696D6D6564004C6576656C20AE
:1059A0004272696768740046616E20737065656451
:1059B00000426564004E6F7A7A6C650053657474BA
:1059C000696E6773005072696E742061626F7274E1
:1059D00065640053746F70207072696E7400436860
:1059E00065636B696E672066696C650046696C6506
:1059F00020696E636F6D706C6574652E20436F6EE9
:105A000074696E756520616E797761793F00045223
:105A1000656672657368004D61696E002F2F2061A5
:105A20006374696F6E3A63616E63656C004D203814
:105A300034004D3834004D3234004D32332025735C
:105A400000052E2E00506C65617365206C6F6164DB
:105A50002066696C616D656E742066697273742E60
:105A6000003E43616E63656C0046696C616D656EF6
:105A7000740053656C6563742066696C616D656E56
:105A8000743A0052756E6E696E672057697A61725A
:105A9000642077696C6C2064656C6574652063753F
:105AA0007272656E742063616C6962726174696F91
:105AB0006E20726573756C747320616E64207374EC
:105AC0006172742066726F6D20746865206265670C
:105AD000696E6E696E672E20436F6E74696E7565B0
